:100000000C9438010C9469010C9469010C946901F9
:100010000C9469010C9469010C9469010C946901B8
:100020000C9469010C9469010C9469010C946901A8
:100030000C9469010C9469010C9469010C94690198
:100040000C9469010C9446080C9469010C946901A4
:100050000C9469010C9469010C9469010C94720769
:100060000C9469010C9469010C9469010C94690168
:100070000C9469010C9469010C9469010C94690158
:100080000C9418080C9469010C9469010C94690192
:100090000C9469010C9469010C9469010C94690138
:1000A0000C9469010C9469010C94EA070C946901A1
:1000B0000C9469010C9469010C9469010C94BC07BF
:1000C0000C9469010C9469010C9469010C94690108
:1000D0000C9469010C9469010C9469010C946901F8
:1000E0000C9469010C9464020C9483020C949F029A
:1000F0000C9487020C9479020C949E020C94D0020A
:100100000C948B020C94A3020C94840D0C94BE0CE2
:100110000C9401030C9422060C9491020C946C0232
:100120000C9499020C9468020C947D020C940404C3
:100130000C9441030C940A020C945E020C949502F8
:100140000C9405040C9470020C94730200002100BE
:10015000240027002A002D00300033000101000098
:10016000040107010A0100002200250028002B00DD
:100170002E003100340002010000050108010B01CE
:10018000000020002300260029002C002F00320050
:100190000001000003010601090105050505070529
:1001A00008080808020202020A0A080804040404F3
:1001B000010101010101010103030303030303031F
:1001C000040707070C0C0C0C0C0C0C0C02020202AE
:1001D00006060606060606060B0B0B0B0B0B0B0B97
:1001E0000102102020080810204010204080020149
:1001F000020108040201010204081020408080402E
:10020000201008040201800402018040201008042C
:1002100002010804020101020408102040800102CA
:1002200004081020408000000A0B02090C0D0E0883
:1002300007030401000000000000000000000000AF
:1002400000000000000000000000000000000000AE
:10025000000012111000000000000000000000006B
:10026000000000000000000000000000BE0C840D33
:1002700011241FBECFEFD1E2DEBFCDBF00E00CBF27
:1002800012E0A0E0B2E0E2E7F1E200E00BBF02C062
:1002900007900D92AA39B107D9F723E0AAE9B2E095
:1002A00001C01D92A93FB207E1F711E0C7E3D1E019
:1002B00000E006C021970109802FFE010E94800EF8
:1002C000C633D10780E00807A9F70E9474080C9490
:1002D000A7100C940000CF92DF92EF92FF92DC0106
:1002E000A03282E0B807D4F5A53BB10514F0A4EB29
:1002F000B0E04091DB0328E830E0241B310947FDE2
:100300003395220F331F220F331F6901330FEE087D
:10031000FF084091DC0328E532E0241B310947FD4A
:100320003395220F331F220F331F032E000C440B73
:10033000550B2C193D094E095F09B7FF02C0B0E00B
:10034000A0E00E943B0E24EB30E040E050E00E9431
:10035000110EC20ED31EE41EF51ED601E091DA0383
:10036000E03380F52091DB0388E890E0821B91095F
:1003700027FD9395880F991F880F991FA817B90714
:1003800084F02091DC0388E592E0821B910927FD2F
:100390009395880F991F880F991FA817B9070CF418
:1003A000CD010297880F991F4FB7F8942E2F30E098
:1003B000F901EE0FFF1FE20FF31FE65BFC4F928384
:1003C00081834FBFFF90EF90DF90CF90089596E02C
:1003D000899FD0011124A552BD4F90967C936E93B6
:1003E0005F9791E091969C939197E0914803F091EB
:1003F000490390914703992339F0309751F08111C7
:1004000008C08091F7021994309719F05C968C918E
:10041000FACF0895AF92BF92CF92DF92EF92FF9200
:100420000F931F93CF93DF936C017B018B01040F1C
:10043000151FEB015E01AE18BF08C017D10759F0B8
:100440006991D601ED91FC910190F081E02DC601FA
:100450001995892B79F7C501DF91CF911F910F91E4
:10046000FF90EF90DF90CF90BF90AF900895FC0188
:1004700044815581608171818DED93E00C940A0275
:100480008150823108F05AC0E82FF0E08827E45B01
:10049000FD4F8F4F0C94800E6C0270025E0264025E
:1004A00068029E02730279027D02830287028B0238
:1004B000910295029E0299029F02A3028091800000
:1004C0008F77809380000895809180008F7DF9CF91
:1004D00080918000877FF5CF84B58F7784BD0895A4
:1004E00084B58F7DFBCF8091B0008F778093B00073
:1004F00008958091B0008F7DF9CF809190008F7723
:10050000809390000895809190008F7DF9CF809125
:100510009000877FF5CF8091A0008F778093A00017
:1005200008958091A0008F7DF9CF8091A000877FF2
:10053000F5CF809120018F778093200108958091DD
:1005400020018F7DF9CF80912001877FF5CFCF9358
:10055000DF93282F30E0F901EA5DFD4F8491F90126
:10056000E052FE4FD491F901E656FE4FC491CC23E0
:10057000A1F081110E944002EC2FF0E0EE0FFF1F6E
:10058000E058FE4FA591B491EC91ED2381E090E00D
:1005900009F480E0DF91CF91089580E090E0FACFF8
:1005A000862F0C94A7021F93CF93DF93282F30E060
:1005B000F901EA5DFD4F8491F901E052FE4FD491BB
:1005C000F901E656FE4FC491CC23A9F0162F8111F4
:1005D0000E944002EC2FF0E0EE0FFF1FEA59FE4FA1
:1005E000A591B4918FB7F894EC91111108C0D095F2
:1005F000DE23DC938FBFDF91CF911F910895DE2B17
:10060000F8CF862F642F0C94D302CF93DF9390E022
:10061000FC01E052FE4F249186569E4FFC018491CE
:100620008823C9F090E0880F991FFC01E45BFE4F1E
:10063000A591B491FC01EA59FE4FC591D491611185
:100640000DC09FB7F8948C91209582238C9388815C
:10065000282328839FBFDF91CF910895623051F402
:100660009FB7F8943C91822F809583238C93E881E7
:100670002E2BEFCF8FB7F894EC912E2B2C938FBFAE
:10068000EACF862F642F0C9405033FB7F89480912E
:10069000A4029091A502A091A602B091A70226B54E
:1006A000A89B05C02F3F19F00196A11DB11D3FBFAA
:1006B000BA2FA92F982F8827BC01CD01620F711D79
:1006C000811D911D42E0660F771F881F991F4A9573
:1006D000D1F708958F929F92AF92BF92CF92DF92FF
:1006E000EF92FF924B015C010E9445036B017C017C
:1006F0000E9445036C197D098E099F09683E73406D
:1007000081059105A8F321E0821A9108A108B1089A
:1007100088EEC80E83E0D81EE11CF11C8114910400
:10072000A104B10429F7FF90EF90DF90CF90BF9024
:10073000AF909F908F9008952FB7F8946091A0028A
:100740007091A1028091A2029091A3022FBF0895FF
:100750000F931F93CF93DF93C82FD62F86E0C89FA8
:10076000F0011124E552FD4F11A2878D90A1813037
:100770009105F1F058F082309105F1F1039709F4F9
:1007800040C0DF91CF911F910F9108956623C9F367
:1007900061E070E08C2F0E94E7010E949C0360934F
:1007A0003303709334038093350390933603E9CF7A
:1007B0000E949C0300913303109134032091350370
:1007C00030913603AB01BC01401B510B620B730B24
:1007D0008091450390914603B0E0A0E0841795070F
:1007E000A607B70748F462E070E08C2FDF91CF9145
:1007F0001F910F910C94E70163E070E0D111C1CF1C
:10080000F4CF70E060E0F1CF089590E080E00895CB
:10081000AF92BF92CF92DF92EF92FF920F931F930E
:10082000CF93DF936B017A01EC01C556DD4F288130
:100830003CE0389F8001399F100D1124A0909A024E
:10084000B12C27FF1FC0FB011182108288818F5FAE
:10085000888388819801280F311D87FD3A95F6011C
:100860002A153B051CF488818C30C4F1808191816C
:10087000049680349C4908F473C0F601808191810C
:10088000049670C088819801280F311D87FD3A9524
:100890002A153B05DCF68881A801480F511D87FD0C
:1008A0005A95FA01EE0FFF1FE40FF51FE65BFC4FB0
:1008B000808186FFCBCF8881F801E80FF11D87FD8D
:1008C000FA95CF01EE0FFF1FE80FF91FE65BFC4F13
:1008D000808160E08F730E94D302B8CF80819181C4
:1008E0002881A801420F511D27FD5A959A01FA014E
:1008F000EE0FFF1FE20FF31FE65BFC4F21813281F9
:10090000820F931FF7019183808388819801280FBC
:10091000311D87FD3A95F901EE0FFF1FE20FF31F1E
:10092000E65BFC4F808186FF22C08881080F111D85
:1009300087FD1A95F801EE0FFF1FE00FF11FE65B30
:10094000FC4F808161E08F73DF91CF911F910F91F8
:10095000FF90EF90DF90CF90BF90AF900C94D302B8
:1009600080E49CE9F701918380838FEF8883DF9196
:10097000CF911F910F91FF90EF90DF90CF90BF909C
:10098000AF900895FC0101900020E9F73197AF0185
:10099000481B590BBC018DED93E00C940A02CF93D8
:1009A000DF93EC0160E08E810E94D30261E08E81D2
:1009B0000E94D30260E08E810E94D3028BE891E016
:1009C0000197F1F7DF91CF910895CF92DF92EF92E7
:1009D000FF920F931F93CF93DF936C017C0187E00D
:1009E000E80EF11CD0E0C0E0062F10E0B8010C2E9C
:1009F00002C0759567950A94E2F76170F7018191DD
:100A00007F010E94D3022196C430D10579F7C60137
:100A1000DF91CF911F910F91FF90EF90DF90CF90DA
:100A20000C94CF04CF92DF92EF92FF920F931F931B
:100A3000CF93DF93EC01F62E642F8C810E94D302BA
:100A40008D818F3F19F060E00E94D3020F2D10E0DE
:100A50008F8584FF25C06E0187E0C80ED11CF12C64
:100A6000E12CB8010E2C02C0759567950A94E2F747
:100A70006170F60181916F010E94D302FFEFEF1ABE
:100A8000FF0A88E0E816F10461F7CE01DF91CF910B
:100A90001F910F91FF90EF90DF90CF900C94CF04B7
:100AA000B80184E0759567958A95E1F7CE010E94BB
:100AB000E5046F2DCE01DF91CF911F910F91FF9033
:100AC000EF90DF90CF900C94E50440E0682F8DED1F
:100AD00093E00C94120581E00E9465058BE39FE191
:100AE0000197F1F70895CF93DF93823029F4909125
:100AF000EC0398609093EC038093F0031092F10361
:100B000080E48093F20380E18093F30380E5809397
:100B1000F40361E08091E1030E9405038091E20308
:100B20008F3F19F061E00E94050361E08091E303CB
:100B30000E940503CDEDD3E09E012D5D33408091F1
:100B4000EC0384FD0BC084E090E021962817390760
:100B500044F461E08E810E940503EECF88E090E0CE
:100B6000F4CF8BE39DE00197F1F760E08091E10322
:100B70000E94D30260E08091E3030E94D30280913F
:100B8000E2038F3F19F060E00E94D3028091EC03F2
:100B900084FD34C063E08DED93E00E94E504CBE476
:100BA000D6E4CE010197F1F763E08DED93E00E946A
:100BB000E5042197F1F763E08DED93E00E94E504F1
:100BC00083E592E00197F1F762E08DED93E00E94FA
:100BD000E5048091EC0380620E94650584E08093C7
:100BE000ED038CE00E9465050E946B0582E0809316
:100BF000EE0386E0DF91CF910C94650580620E9440
:100C000065058BE496E40197F1F78091EC0380622F
:100C10000E94650583E592E00197F1F78091EC036E
:100C200080620E946505D5CF9091F003891710F07E
:100C30008FEF890FE82FF0E0E352FC4F8489806842
:100C40000C94650541E00E94120581E090E0089552
:100C50000F931F93CF93DF93EC01888199810097C5
:100C600059F02A813B812617370730F081E0DF9168
:100C7000CF911F910F9108958B016F5F7F4F0E945D
:100C8000AD0F009759F0998388831B830A832C81C9
:100C90003D81232B59F7FC011082E8CF80E0E7CF9C
:100CA000EF92FF920F931F93CF93DF93611571051E
:100CB00041F480E0DF91CF911F910F91FF90EF9071
:100CC000089541155105B1F07B01EC010C811D81A6
:100CD000040F151FB8010E942806882351F32881AC
:100CE00039818C819D81B701820F931F0E94A010D2
:100CF0001D830C8381E0DECFCF93DF93EC018881ED
:100D00009981009711F00E94240F198218821D8288
:100D10001C821B821A82DF91CF910895CF93DF93BB
:100D2000EC01FB0144815581608171810E94500674
:100D3000811103C0CE010E947C06CE01DF91CF91CC
:100D40000895EF92FF920F931F93CF93DF93EC01DF
:100D50007B018A01BA010E94280681110BC0CE01D5
:100D60000E947C06CE01DF91CF911F910F91FF90E1
:100D7000EF9008951D830C83B701888199810E94AB
:100D8000A010F0CFFB0101900020E9F73197AF01EF
:100D9000461B570B0C94A1060F931F93CF93DF9321
:100DA000CDB7DEB762970FB6F894DEBF0FBECDBFEA
:100DB0008C01CB01F80111821082138212821582FC
:100DC00014824AE0BE016F5F7F4F0E94C70DBE01D3
:100DD0006F5F7F4FC8010E94C20662960FB6F894FB
:100DE000DEBF0FBECDBFDF91CF911F910F91089550
:100DF000FC01118210821382128215821482FB017F
:100E000001900020E9F73197AF01461B570B0C9476
:100E1000A106FC0180819181009711F00C94240FB0
:100E20000895CF93DF9300D000D0CDB7DEB70E94F6
:100E30006B0581E00E9414068091D9029091DA023C
:100E40001A8219821C821B821E821D8226E0289F24
:100E5000F001299FF00D1124E855FD4F608171814B
:100E60006115710531F044815581CE0101960E94D2
:100E7000A1066CEC72E0CE0101960E948E060E94E3
:100E80003702CE0101960E94090726960FB6F89404
:100E9000DEBF0FBECDBFDF91CF91089561E084E347
:100EA0000E94D3028AE590E00E946B0160E082E339
:100EB0000E94D3021092D8021092DA021092D90244
:100EC0006EE372E08CEC92E00E94C2060E94110771
:100ED00064E670E080E090E00E946A0360E084E3F2
:100EE0000C94D3021F920F920FB60F9211242F93DE
:100EF0003F938F939F93AF93BF938091A002909164
:100F0000A102A091A202B091A30230919F0223E01E
:100F1000230F2D3758F50196A11DB11D20939F0277
:100F20008093A0029093A102A093A202B093A30287
:100F30008091A4029091A502A091A602B091A7026F
:100F40000196A11DB11D8093A4029093A502A093C8
:100F5000A602B093A702BF91AF919F918F913F914D
:100F60002F910F900FBE0F901F90189526E8230F1A
:100F70000296A11DB11DD2CF1F920F920FB60F92F4
:100F800011240BB60F922F933F934F935F936F9360
:100F90007F938F939F93AF93BF93EF93FF9348E219
:100FA00051E064E271E090E080E00E940804FF916B
:100FB000EF91BF91AF919F918F917F916F915F91D1
:100FC0004F913F912F910F900BBE0F900FBE0F903E
:100FD0001F9018951F920F920FB60F9211240BB607
:100FE0000F922F933F934F935F936F937F938F93C2
:100FF0009F93AF93BF93EF93FF9348EA50E064EA67
:1010000070E083E090E00E940804FF91EF91BF91AF
:10101000AF919F918F917F916F915F914F913F9190
:101020002F910F900BBE0F900FBE0F901F90189531
:101030001F920F920FB60F9211240BB60F922F939F
:101040003F934F935F936F937F938F939F93AF9350
:10105000BF93EF93FF9348E950E064E970E082E0CA
:1010600090E00E940804FF91EF91BF91AF919F9192
:101070008F917F916F915F914F913F912F910F9041
:101080000BBE0F900FBE0F901F9018951F920F92DE
:101090000FB60F9211240BB60F922F933F934F93DD
:1010A0005F936F937F938F939F93AF93BF93EF93D0
:1010B000FF9348E850E064E870E081E090E00E942F
:1010C0000804FF91EF91BF91AF919F918F917F9114
:1010D0006F915F914F913F912F910F900BBE0F90A9
:1010E0000FBE0F901F901895CF93DF93CDB7DEB74B
:1010F00060970FB6F894DEBF0FBECDBF789484B56D
:10110000826084BD84B5816084BD85B5826085BD03
:1011100085B5816085BD80916E00816080936E0091
:101120001092810080918100826080938100809183
:101130008100816080938100809180008160809334
:1011400080008091B10084608093B1008091B000F4
:1011500081608093B00080919100826080939100C3
:1011600080919100816080939100809190008160D6
:10117000809390008091A10082608093A100809173
:10118000A10081608093A1008091A0008160809384
:10119000A000809121018260809321018091210132
:1011A00081608093210180912001816080932001E2
:1011B00080917A00846080937A0080917A008260C6
:1011C00080937A0080917A00816080937A00809188
:1011D0007A00806880937A001092C10061E082E317
:1011E0000E94050361E084E30E9405038091DA0315
:1011F000803308F052C061E08DE00E9405038091C9
:10120000DA03282F30E0F901EE0FFF1FE20FF31F82
:10121000E65BFC4F9081907C9D6090831092DB0395
:101220001092DC032CE0622F0E94740E829FB001AA
:10123000112430E020E0AB01420F531FFA01EE0F02
:10124000FF1FE40FF51FE65BFC4F908196FD17C072
:101250002F5F3F4F2C30310571F7813009F0CFC03F
:101260001092800082E0809381001092850010929D
:101270008400B19A80916F00826080936F00E0914A
:10128000DA038E2F90E0FC01EE0FFF1FE80FF91F2D
:10129000E65BFC4F8081806480838AE590E00E9459
:1012A0006B0182E00E9473050E946B0581E00E9441
:1012B00014062091D9023091DA0246E0429FC00123
:1012C000439F900D112488559D4F0E94370278EE60
:1012D000472E73E0572E612C712C812C912C5401D8
:1012E000839464E0C62ED12C8091D80210E000E0F7
:1012F000882329F100911802109119020E949C0381
:101300002091C6023091C7024091C8025091C90293
:10131000621B730B840B950BA30192010E94430E79
:10132000021B130B17FF0BC08091D9029091DA02B8
:10133000029709F090C01092DA021092D9028091BF
:10134000D802882361F180E00E941406B801CE0122
:1013500001960E94CC0668E372E0CE0107960E94D7
:10136000F806BE016F5F7F4FCE0107960E948E0682
:101370008C0141E050E06DE372E00E945006811163
:1013800003C0C8010E947C06C8010E943702CE013A
:1013900007960E940907CE0101960E94090781E085
:1013A000809347030E949C030091370310913803F8
:1013B0002091390330913A03AB01BC01401B510B22
:1013C000620B730B8091430390914403B0E0A0E063
:1013D00084179507A607B70708F04FC110E0809162
:1013E00041031817D8F5E0913D03F0913E03E10F5A
:1013F000F11D62E080810E9405031F5FF0CF823003
:1014000061F41092900080939100109295001092D8
:10141000940088BB8093710032CF833069F41092BE
:10142000A00082E08093A1001092A5001092A40079
:1014300089BB8093720023CF811121CF10922001AC
:1014400082E08093210110922501109224018ABB31
:101450008093730014CF0E944E0771CF312C80917E
:101460004203381608F06BC0032D10E0E0913F03F3
:10147000F0914003E00FF11F61E080810E940503BD
:10148000E0913F03F0914003E00FF11F60E08081A5
:101490000E94D302D501C401032C04C0880F991FF8
:1014A000AA1FBB1F0A94D2F79E878D879C012095A7
:1014B0003095388B2F87212C80914103281640F5D9
:1014C000E22CF12CE0913D03F0913E03EE0DFF1D67
:1014D00080810E94A702F7013496892B71F4EE0FE8
:1014E000FF1FE552FD4F808191812D853E85822B26
:1014F000932B918380832394DFCFEE0FFF1FE55260
:10150000FD4F808191812F85388982239323F1CFEC
:10151000E0913F03F0914003E00FF11F61E0808113
:101520000E94D30280913F0390914003080F191F3E
:1015300060E0F80180810E940503339490CF3BED79
:10154000E32E32E0F32E8701F801878D90A1892BDD
:1015500031F4148E2FEF3FEF368F258F11A20A5FE3
:101560001F4F33E00731130779F7312C8091410386
:10157000381608F055C0212C832D90E0880F991F54
:10158000FC01ED51FD4FFE87ED87209142032216AD
:1015900008F044C0ED85FE8560817181022C02C097
:1015A000769567950A94E2F7329E90011124220DF8
:1015B000311DEBEDF2E080E0458D568D24173507A7
:1015C00009F483C18F5F36968A30B1F760FF24C07B
:1015D000EBEDF2E090E080E0448D411118C0E09125
:1015E0003B03F0913C03E20FF31F408156E0589F0C
:1015F000F001599FF00D1124E552FD4F448F368FB5
:10160000258F10A2178E61E00E94A80305C00196E5
:1016100036968A30910501F72394B7CF3394A6CF3D
:10162000312CF70181A18111382EF6E0EF0EF11C6B
:101630000E151F05B1F70E949C036093370370934A
:1016400038038093390390933A033320B1F08091AB
:10165000FC02882391F08091FA029091FB0201979D
:1016600061F41091F70211110BC080E090E0892B1A
:1016700009F43ACE0E94000034CE10924703F5CF11
:101680008091D9029091DA02029779F30E941107B2
:1016900041E0612F8DED93E00E9412051D3309F0AA
:1016A000E5C08091D9029091DA02009709F096C0C6
:1016B0008091D8028111D9CF0E946B054091D00250
:1016C0005091D1022091D6023091D7024217530790
:1016D000C1F48091CC029091CD026091D2027091C0
:1016E000D302009709F4F3C06115710539F4452B55
:1016F00009F4FBC0FC01808190E0F4C00E949710C7
:10170000F1C00091CA021091CB02C80101969093DA
:10171000CB028093CA0204976CF182E090E0909330
:10172000DA028093D9026EE372E08CEC92E00E94C0
:10173000C2060E949C036093C6027093C702809306
:10174000C8029093C90281E08093D8020250110927
:1017500025E0209FC001219F900D11249093190234
:101760008093180281E00E94140687E492E00E94B0
:10177000C2047BCF86E592E00E94C20481E00E9411
:1017800014068091CA029091CB02B601681B790BB6
:10179000CE0101960E94CC066CE572E0CE01079660
:1017A0000E94F806BE016F5F7F4FCE0107960E9430
:1017B0008E060E943702CE0107960E940907CE01CD
:1017C00001960E9409071092DA021092D9026EE384
:1017D00072E08CEC92E00E94C20647CF8330910504
:1017E00041F58091D802882309F43FCF6091CC0263
:1017F0007091CD0261157105B9F04091D002509100
:10180000D10282ED92E00E94A1066EE372E08CECC0
:1018100092E00E94C20681E090E09093DA02809309
:10182000D9020E94110721CF82ED92E00E947C062E
:10183000ECCF049709F019CF8091D802882309F4DE
:1018400014CF8091CC029091CD02009759F00E9464
:10185000A00D70931B0260931A027093190260939B
:101860001802D3CF60E070E0CB01F3CF1B3249F414
:101870008091D9029091DA020197D9F483E090E047
:10188000CCCF1D3259F48091D9029091DA020197A0
:1018900081F4D092DA02C092D902C3CF1A3249F44D
:1018A0008091D9029091DA02019719F40E944E07B3
:1018B000DCCE19831A8241E050E0BE016F5F7F4F9A
:1018C0008CEC92E00E945006D0CE61709DCE6115E6
:1018D000710559F0232B49F0FB01808190E091952F
:1018E00081959109892B09F00CCF1092CB021092AF
:1018F000CA0280E00E9414068FE392E00E94C204B4
:101900006EE372E08CEC92E00E94C20680911A02B3
:1019100090911B02909319028093180264EF71E07A
:1019200080E090E00E946A0361E084E30E94D302B9
:1019300081E090E09093DA028093D90284EB90E00A
:101940000E946B0161E082E30E94D30281E08093F8
:10195000D8020E949C036093C6027093C7028093D2
:10196000C8029093C90264E670E080E090E00E94B3
:101970006A0360E084E30E94D30277CECF93109293
:10198000DD021092E1021092E0021092E20282E384
:1019900092E09093DC028093DB02E7EFF2E01082AA
:1019A000148213821582369683E0E333F807B9F781
:1019B00084E092E090933E0380933D0380E092E0C8
:1019C0009093400380933F0384E08093410380938E
:1019D000420328E032E030933C0320933B032AE0AB
:1019E00030E0309344032093430324EF31E03093FD
:1019F0004603209345031092490310924803109226
:101A00003703109238031092390310923A03109260
:101A100047031092E0031092DF0326E232E0309396
:101A2000DE032093DD039CE09093E103CFEFC093AE
:101A3000E2039BE09093E30395E09093E4038093AB
:101A4000E50383E08093E60382E08093E70310924E
:101A5000E8031092E9031092EA031092EB0310924C
:101A6000EC0381E00E94730580919A02803308F0B4
:101A700048C091E0980F90939A028093DA0390E027
:101A8000FC01EE0FFF1FE80FF91FE65BFC4F88EB30
:101A90009BE09283818363E672E088EA92E00E9491
:101AA000F8066AE672E08EEA92E00E94F80667E7BE
:101AB00072E084EB92E00E94F8066EE772E08AEB37
:101AC00092E00E94F80669E872E080EC92E00E94E1
:101AD000F8066EE372E08CEC92E00E94F80664E98E
:101AE00072E082ED92E00E94F8060E949C036093EF
:101AF000C6027093C7028093C8029093C902CF9127
:101B00000895C093DA03C7CF82ED92E00E940907DF
:101B10008CEC92E00E94090780EC92E00E94090799
:101B20008AEB92E00E94090784EB92E00E94090789
:101B30008EEA92E00E94090788EA92E00C94090775
:101B40001F93FC0199278827BC01E894119110325A
:101B5000E9F3193010F01E30C8F31B3251F01D327A
:101B600049F4689406C00E94D20D610F711D811D59
:101B7000911D119110531A30B0F33EF49095809559
:101B8000709561957F4F8F4F9F4F1F910895BB2791
:101B90004A3031F4992322F4BDE2909581959F4F0C
:101BA0000C94E80D592F482F372F262F660F771FDB
:101BB000881F991F660F771F881F991F620F731F59
:101BC000841F951F660F771F881F991F0895BB27D5
:101BD000FB015527AA27880F991FAA1FA41710F0E9
:101BE000A41B83955051B9F7A05DAA3308F0A95DF5
:101BF000A193009779F7B111B1931192CB010C9495
:101C0000010EDC01FC01672F71917723E1F7329718
:101C100004C07C916D9370836291AE17BF07C8F3C7
:101C20000895052E97FB1EF400940E94280E57FD80
:101C300007D00E94430E07FC03D04EF40C94280EEC
:101C400050954095309521953F4F4F4F5F4F0895E8
:101C500090958095709561957F4F8F4F9F4F089518
:101C60000E94650EA59F900DB49F900DA49F800DBE
:101C7000911D11240895B7FF0C94300E0E94300E70
:101C8000821B930B0895A1E21A2EAA1BBB1BFD0118
:101C90000DC0AA1FBB1FEE1FFF1FA217B307E4074B
:101CA000F50720F0A21BB30BE40BF50B661F771FA3
:101CB000881F991F1A9469F7609570958095909583
:101CC0009B01AC01BD01CF010895A29FB001B39F5C
:101CD000C001A39F700D811D1124911DB29F700D35
:101CE000811D1124911D0895991B79E004C0991F4D
:101CF000961708F0961B881F7A95C9F78095089566
:101D0000EE0FFF1F881F8BBF0790F691E02D1994EF
:101D10000F931F93CF93DF938230910510F482E0ED
:101D200090E0E091F703F091F80330E020E0B0E0BC
:101D3000A0E0309799F42115310509F44AC0281B19
:101D4000390B24303105D8F58A819B8161157105E5
:101D500089F1FB0193838283FE0111C0408151818F
:101D60000281138148175907E0F04817590799F481
:101D7000109761F012960C93129713961C9332965B
:101D8000CF01DF91CF911F910F9108950093F70339
:101D90001093F803F4CF2115310551F04217530782
:101DA00038F0A901DB019A01BD01DF01F801C1CFC3
:101DB000EF01F9CF9093F8038093F703CDCFFE01A5
:101DC000E20FF31F819391932250310939832883C5
:101DD000D7CF2091F5033091F603232B41F42091C6
:101DE0001E0230911F023093F6032093F5032091D9
:101DF0001C0230911D022115310541F42DB73EB76B
:101E00004091200250912102241B350BE091F503F3
:101E1000F091F603E217F307A0F42E1B3F0B2817EF
:101E2000390778F0AC014E5F5F4F2417350748F053
:101E30004E0F5F1F5093F6034093F50381939193E8
:101E40009FCFF0E0E0E09CCFCF93DF930097E9F0E5
:101E5000FC01329713821282A091F703B091F8032C
:101E6000ED0130E020E01097A1F420813181820F54
:101E7000931F2091F5033091F6032817390709F0D5
:101E800061C0F093F603E093F503DF91CF910895DD
:101E9000EA01CE17DF07E8F54A815B819E01411513
:101EA0005105B1F7E901FB83EA8349915991C40FC8
:101EB000D51FEC17FD0761F4808191810296840F94
:101EC000951FE90199838883828193819B838A830B
:101ED000F0E0E0E012968D919C9113970097B9F590
:101EE0002D913C911197CD010296820F931F209165
:101EF000F5033091F6032817390739F6309751F575
:101F00001092F8031092F703B093F603A093F50331
:101F1000BCCFD383C28340815181840F951FC817E2
:101F2000D90761F44E5F5F4F88819981480F591F2F
:101F3000518340838A819B8193838283211531055C
:101F400009F0B0CFF093F803E093F7039ECFFD01C3
:101F5000DC01C0CF13821282D7CF4F925F926F9273
:101F60007F928F929F92AF92BF92CF92DF92EF9229
:101F7000FF920F931F93CF93DF938C01009799F4F7
:101F8000CB01DF91CF911F910F91FF90EF90DF90E8
:101F9000CF90BF90AF909F908F907F906F905F9009
:101FA0004F900C94880EFC01E60FF71F9C01225005
:101FB0003109E217F30708F4AEC0D901CD91DC91E5
:101FC0001197C617D70720F1C530D10578F0CE019B
:101FD00004978617970750F0C61BD70B2297C1931B
:101FE000D1936D937C93CF010E94240FC801DF91A0
:101FF000CF911F910F91FF90EF90DF90CF90BF9006
:10200000AF909F908F907F906F905F904F900895CA
:102010005B01AC1ABD0A4C018C0E9D1EA091F7030A
:10202000B091F803512C412CF12CE12C109731F593
:102030008091F5039091F6038815990509F05CC02D
:102040004616570608F058C080911C0290911D0258
:10205000009741F48DB79EB7409120025091210224
:10206000841B950BE817F90708F055C0F093F603A9
:10207000E093F503F90171836083B8CF8D919C9152
:10208000119712966C90129713967C901397A8153F
:10209000B90559F56C0142E0C40ED11CCA14DB0429
:1020A00020F1AC014A195B09DA011296159780F00C
:1020B0006282738251834083D9016D937C93E114D2
:1020C000F10471F0D7011396FC93EE9312978ECF23
:1020D00022968C0F9D1FF90191838083F301EFCF2E
:1020E000F093F803E093F70381CF4816590608F4FC
:1020F0002C017D01D3019ACFCB010E94880E7C0177
:10210000009749F0AE01B8010E948E10C8010E94EC
:10211000240F87016BCF10E000E068CFFB01DC01EA
:1021200002C001900D9241505040D8F70895FB0134
:10213000DC018D91019080190110D9F3990B08955C
:10214000FB01DC0101900D920020E1F7089511E000
:10215000C7E3D1E000E006C0802FFE010E94800EA0
:102160002196011DC833D10780E00807A9F7F8942C
:02217000FFCF9F
:10217200161718191A1B1C1D3738392F3435362AF1
:102182003132332D63303D2B0A000A000000F9037F
:1021920080000000000022060A0205040404000078
:1021A200000041030103D00254696D653A200063C7
:1021B2006F72726563740073797374656D206C6FEE
:1021C200636B6564210077726F6E67006C6566747D
:1021D2003A2000506173733A2000646F6F72206975
:1021E20073206F70656E006C6F636B6564006E6563
:1021F2007720706173733A20006E65772074696D81
:0A220200653A200030303030000053
:00000001FF
