:100000000C944F010C9480010C9480010C9480019D
:100010000C9480010C9480010C9480010C9480015C
:100020000C9480010C9480010C9480010C9480014C
:100030000C9480010C94BB060C9480010C948001FC
:100040000C9480010C9480010C9480010C9480012C
:100050000C9480010C9480010C9480010C94BA07DC
:100060000C9480010C9484070C945A070C94800122
:100070000C9480010C9480010C9480010C948001FC
:100080000C9480010C9480010C9480010C948001EC
:100090000C9480010C9480010C9480010C948001DC
:1000A0000C9480010C9480010C9480010C948001CC
:1000B0000C9480010C9480010C9480010C948001BC
:1000C0000C9480010C9480010C9480010C948001AC
:1000D0000C9480010C9480010C9480010C9480019C
:1000E0000C9480010C94B9090C94A3090C94AF09E9
:1000F0000C9414060C94F3050C94B7040C946D0541
:100100000C941A060C9409060C94AA090C94B409D0
:100110000C9440060C94C5090C948A040C940D06AA
:100120000C9420050C94CA090C9444060C943606D1
:100130000C942C060C9405060C94010A0C94EE0504
:100140000C9432060C94E0090C94BE090C94DA0469
:100150000C941E060C9411060C9402090C94D409FC
:100160000C94EA090C9428060C94CF090C94FA0913
:100170000C94F3090C9424060C94FE080C94E804E7
:100180000C949E090C94D9090C943A060C94E50938
:100190000C94C60400000A0B02090C0D0E0807039C
:1001A000040100000000000000000000000000004A
:1001B000000000000000000000000000000000003F
:1001C00012111000000000000000000000000000FC
:1001D00000000000000000000000020000220025D6
:1001E0000028002B002E0031003400020100000521
:1001F0000108010B0100002100240027002A002D26
:10020000003000330001010000040107010A01056C
:10021000050505070508080808020202020A0A087F
:1002200008040404040101010101010101030303A5
:100230000303030303040707070C0C0C0C0C0C0C42
:100240000C0202020206060606060606060B0B0B49
:100250000B0B0B0B0B010210202008081020401084
:10026000204080020102010804020101020408107A
:100270002040808040201008040201800402018098
:1002800040201008040201080402010102040810C1
:10029000204080010204081020408000010A11243F
:1002A0001FBECFEFD1E2DEBFCDBF00E00CBF12E03A
:1002B000A0E0B2E0E2E7F7E100E00BBF02C0079088
:1002C0000D92AA33B107D9F723E0AAE3B2E001C047
:1002D0001D92A930B207E1F711E0CFE4D1E000E0D0
:1002E00006C021970109802FFE010E94A00BCE3489
:1002F000D10780E00807A9F70E9404080C94B70B07
:100300000C94000090E0FC01EB5AFD4F2491815FBA
:100310009D4FFC018491882399F090E0880F991FEC
:10032000FC01EB50FE4FA591B491FC01E552FE4F4C
:10033000859194918FB7F894EC91E22BEC938FBF59
:1003400008954F925F926F927F928F929F92AF9299
:10035000BF92CF92DF92EF92FF920F931F93CF93B2
:100360008C01809100028B3099F08F3F09F485C099
:10037000CF911F910F91FF90EF90DF90CF90BF90A2
:10038000AF909F908F907F906F905F904F90089567
:10039000EAEDF1E0C491C7FDEBCF8BE00E94820152
:1003A000CC2319F0C23009F0D4C14801B12CA12CE2
:1003B00060E072E18AE790E0A50198010E94810B5C
:1003C00029013A017A01690121E0C21AD108E10844
:1003D000F1088FEFC816D104E104F10409F00CF420
:1003E00085C160E472E48FE090E0A50198010E946D
:1003F000810B69017A0181E0C81AD108E108F1088E
:10040000C23009F00DC182E02FEFC216D104E10421
:10041000F10409F00CF454C260E970ED83E090E05F
:10042000A50198010E94810B69017A0181E0C81A37
:10043000D108E108F10883E02FEFC216D104E104EE
:10044000F10409F00CF43CC268E478EE81E090E03D
:10045000A50198010E94810B69017A0181E0C81A07
:10046000D108E108F1082FEFC216D104E104F1042C
:1004700011F00CF013C184E023C28BE080930002E2
:10048000EAEDF1E0C4918C2FCF3F09F471CFC23077
:1004900009F467C058F4CC2371F1C13009F443C0AA
:1004A00087FD66CF8BE00E9482017CCFC43009F4C7
:1004B00099C008F478C0C53099F7109220011092C5
:1004C0002101809121018860809321018091210187
:1004D000816080932101EAE1F2E0E491F0E0EE0F27
:1004E000FF1FE552FE4F85919491E0E6F2E0E49122
:1004F000E093E90252CF14BC15BC84B5826084BD80
:1005000085B5816085BDEAE1F2E0E491F0E0EE0FAF
:10051000FF1FE552FE4F85919491E0E6F2E0E491F1
:10052000E093F0023ACF1092800010928100809107
:100530008100886080938100809181008160809338
:100540008100EAE1F2E0E491F0E0EE0FFF1FE552F6
:10055000FE4F85919491E0E6F2E0E491E093EF02A2
:100560001CCF1092B0001092B1008091B000826058
:100570008093B0008091B10081608093B100EAE186
:10058000F2E0E491F0E0EE0FFF1FE552FE4F85919F
:1005900094919093EE028093ED02E0E6F2E0E49114
:1005A000E093EC02FACE10929000109291008091AC
:1005B0009100886080939100809191008160809388
:1005C0009100EAE1F2E0E491F0E0EE0FFF1FE55266
:1005D000FE4F85919491E0E6F2E0E491E093EB0226
:1005E000C3E0DBCE1092A0001092A1008091A10088
:1005F00088608093A1008091A10081608093A10018
:10060000EAE1F2E0E491F0E0EE0FFF1FE552FE4F69
:1006100085919491E0E6F2E0E491E093EA02BDCEA8
:100620008FEFC816D104E104F10409F00CF48FC077
:1006300068E478EE81E090E0A50198010E94810BCA
:1006400069017A0181E0C81AD108E108F108CC23D8
:1006500009F456C18FEFC816D104E104F10409F082
:100660000CF409CF62E17AE780E090E0A501940103
:100670000E94810B69017A0181E0C81AD108E10862
:10068000F108CC2309F433C18FEFC816D104E1047B
:10069000F10411F008F005C186E012C164E274EFC4
:1006A00080E090E0A50194010E94810B69017A012C
:1006B00081E0C81AD108E108F10885E02FEFC216E1
:1006C000D104E104F10409F008F4FAC062E17AE728
:1006D00080E090E0A50194010E94810B69017A01FC
:1006E00081E0C81AD108E108F108CECF81E0C1113C
:1006F000E7C095B5987F892B85BD9801220F331FE0
:10070000AAE0B0E00E94A80B28EE33E040E050E001
:100710000E945F0BC23009F490C00CF066C0CC237D
:1007200009F47CC0C13009F023CED0928900C09278
:1007300088002093010330930203409303035093F6
:10074000040380916F00826080936F0011CE82E07D
:10075000CECFF12CE12C60E072E18AE790E0A701B6
:1007600098010E94810BDA01C9010197A109B10921
:10077000009721E0A207B1055CF46C0191E0C13063
:10078000C1F480918100887F892B80938100B5CF4F
:1007900068E478EE81E090E0A70198010E94810B67
:1007A00069017A0181E0C81AD108E108F10893E0F3
:1007B000E6CFC33039F480919100887F892B8093F4
:1007C00091009BCFC43039F48091A100887F892BA0
:1007D0008093A10092CFC53009F08FCF8091210185
:1007E000887F892B8093210188CFC43009F447C0CA
:1007F000A4F1C53009F0BCCDD0922901C0922801E6
:100800002093F1023093F2024093F3025093F402EA
:1008100080917300826080937300AACDC7BC20933F
:100820000503309306034093070350930803809118
:100830006E00826080936E009BCDC092B3002093C7
:10084000FD023093FE024093FF025093000380911B
:1008500070008260809370008BCDD0929900C0921E
:1008600098002093F9023093FA024093FB025093D0
:10087000FC028091710082608093710079CDD092EA
:10088000A900C092A8002093F5023093F60240938D
:10089000F7025093F8028091720082608093720098
:1008A00067CD730162019AE0F594E794D794C794F9
:1008B0009A95D1F721E0C21AD108E108F10887E042
:1008C0009091B100987F892B8093B10016CF73016E
:1008D00062018AE0F594E794D794C7948A95D1F79A
:1008E00021E0C21AD108E108F10885E002CF8FEFBC
:1008F000C816D104E104F10409F048F784E0F9CE08
:1009000083E02FEFC216D104E104F10409F00CF4E6
:10091000F0CEA8CEAF92BF92CF92DF92EF92FF922D
:100920000F931F93CF93DF936C017B018B01040F17
:10093000151FEB015E01AE18BF08C017D10759F0B3
:100940006991D601ED91FC910190F081E02DC601F5
:100950001995892B79F7C501DF91CF911F910F91DF
:10096000FF90EF90DF90CF90BF90AF900895FC0183
:10097000538D448D252F30E0842F90E0821B930B04
:10098000541710F0CF96089501970895FC01918DAA
:10099000828D981761F0A28DAE0FBF2FB11D5D96AD
:1009A0008C91928D9F5F9F73928F90E008958FEF4F
:1009B0009FEF0895FC01918D828D981731F0828D03
:1009C000E80FF11D858D90E008958FEF9FEF08955A
:1009D000FC01918D228D892F90E0805C9F4F821BBE
:1009E00091098F73992708958CE492E00E94E8049E
:1009F00021E0892B09F420E0822F0895FC01A48DC9
:100A0000A80FB92FB11DA35ABF4F2C91848D90E030
:100A100001968F739927848FA689B7892C93A08913
:100A2000B1898C91837080648C93938D848D98139D
:100A300006C00288F389E02D80818F7D8083089530
:100A4000EF92FF920F931F93CF93DF93EC0181E01E
:100A5000888F9B8D8C8D98131AC0E889F9898081C5
:100A600085FF15C09FB7F894EE89FF896083E889F8
:100A7000F98980818370806480839FBF81E090E0EA
:100A8000DF91CF911F910F91FF90EF900895F62E77
:100A90000B8D10E00F5F1F4F0F731127E02E8C8D11
:100AA0008E110CC00FB607FCFACFE889F989808156
:100AB00085FFF5CFCE010E94FE04F1CFEB8DEC0F48
:100AC000FD2FF11DE35AFF4FF0829FB7F8940B8F73
:100AD000EA89FB8980818062CFCFCF93DF93EC01DD
:100AE000888D8823B9F0AA89BB89E889F9898C9116
:100AF00085FD03C0808186FD0DC00FB607FCF7CFD2
:100B00008C9185FFF2CF808185FFEDCFCE010E94D1
:100B1000FE04E9CFDF91CF91089580E090E0892B2A
:100B200029F00E94F40481110E94000080E090E00E
:100B3000892B49F080E090E0892B29F00E94000089
:100B400081110E94000080E090E0892B49F080E054
:100B500090E0892B29F00E94000081110E94000082
:100B600080E090E0892B49F080E090E0892B29F02B
:100B70000E94000081110C9400000895282F30E09D
:100B8000F901EC56FE4F9491F901EB5AFD4F449157
:100B9000215F3D4FF9012491222309F435C09923A7
:100BA00011F191509231F8F4E92FF0E08827E452E6
:100BB000FA4F8F4F0C94A00B0D061106EE0505069B
:100BC0000906F30514061A061E06240628062C0636
:100BD00032063606F3053A06400644068091800048
:100BE0008F7780938000E22FF0E0EE0FFF1FE55239
:100BF000FE4FA591B4918FB7F894EC91611148C064
:100C000040954E234C938FBF0895809180008F7D37
:100C1000E8CF80918000877FE4CF84B58F7784BD53
:100C2000E2CF84B58F7DFBCF8091B0008F7780932A
:100C3000B000D9CF8091B0008F7DF9CF8091900026
:100C40008F7780939000CFCF809190008F7DF9CFE8
:100C500080919000877FF5CF8091A0008F7780935F
:100C6000A000C1CF8091A0008F7DF9CF8091A0001E
:100C7000877FF5CF809120018F7780932001B3CFBC
:100C8000809120018F7DF9CF80912001877FF5CF62
:100C90004E2BB8CF90917B00977F90937B0086532B
:100CA000806480937C0080917A00806480937A00D5
:100CB00080917A0086FDFCCF809178009091790038
:100CC00008953FB7F89480913F0290914002A0911F
:100CD0004102B091420226B5A89B05C02F3F19F0F2
:100CE0000196A11DB11D3FBFBA2FA92F982F8827AC
:100CF000BC01CD01620F711D811D911D42E0660F87
:100D0000771F881F991F4A95D1F708958F929F9258
:100D1000AF92BF92CF92DF92EF92FF920E94610654
:100D20004B015C018AE0C82ED12CE12CF12C0E94F1
:100D30006106681979098A099B09683E7340810533
:100D40009105A8F321E0C21AD108E108F10888EE64
:100D5000880E83E0981EA11CB11CC114D104E104CB
:100D6000F10429F7FF90EF90DF90CF90BF90AF9004
:100D70009F908F9008951F920F920FB60F9211249B
:100D80000BB60F922F933F934F935F936F937F9385
:100D90008F939F93AF93BF93EF93FF938091FD0247
:100DA0009091FE02A091FF02B0910003892B8A2B43
:100DB0008B2BE1F19091EC02E091ED02F091EE02CB
:100DC0008081892780838091FD029091FE02A0910D
:100DD000FF02B0910003181619061A061B069CF4B0
:100DE0008091FD029091FE02A091FF02B09100035C
:100DF0000197A109B1098093FD029093FE02A0938F
:100E0000FF02B0930003FF91EF91BF91AF919F91CB
:100E10008F917F916F915F914F913F912F910F90A3
:100E20000BBE0F900FBE0F901F901895809100027F
:100E3000EAEDF1E0E4919FEF90930002E230E9F0F7
:100E400040F4EE2389F0E13091F060E00E94BE05AD
:100E5000DACFE43049F110F1E530B9F79091730041
:100E60009D7F90937300F1CF10926E00EECF909122
:100E70006F009D7F90936F00E8CF909170009D7FF1
:100E80009093700091E09093B0009091B100987FA2
:100E900094609093B1001092B300D7CF90917100FD
:100EA0009D7F90937100D1CF909172009D7F909320
:100EB0007200CBCF1F920F920FB60F9211240BB678
:100EC0000F922F933F934F935F936F937F938F93E3
:100ED0009F93AF93BF93EF93FF938CE492E00E94B4
:100EE000FE04FF91EF91BF91AF919F918F917F9100
:100EF0006F915F914F913F912F910F900BBE0F908B
:100F00000FBE0F901F9018951F920F920FB60F9261
:100F100011240BB60F922F938F939F93EF93FF9310
:100F2000E0915C02F0915D028081E0916202F091BB
:100F3000630282FD1DC09081809165028F5F8F7377
:100F400020916602821741F0E0916502F0E0E45BD7
:100F5000FD4F958F80936502FF91EF919F918F9147
:100F60002F910F900BBE0F900FBE0F901F901895F2
:100F70008081F2CF1F920F920FB60F9211242F9300
:100F80003F938F939F93AF93BF9380913B02909138
:100F90003C02A0913D02B0913E0230913A0223E022
:100FA000230F2D3758F50196A11DB11D20933A024C
:100FB00080933B0290933C02A0933D02B0933E028B
:100FC00080913F0290914002A0914102B091420273
:100FD0000196A11DB11D80933F0290934002A09302
:100FE0004102B0934202BF91AF919F918F913F9187
:100FF0002F910F900FBE0F901F90189526E8230F8A
:101000000296A11DB11DD2CF789484B5826084BDB3
:1010100084B5816084BD85B5826085BD85B58160FC
:1010200085BD80916E00816080936E00109281007A
:101030008091810082608093810080918100816035
:1010400080938100809180008160809380008091F6
:10105000B10084608093B1008091B0008160809382
:10106000B000809191008260809391008091910006
:1010700081608093910080919000816080939000C6
:101080008091A10082608093A1008091A100816085
:101090008093A1008091A00081608093A000809146
:1010A00021018260809321018091210181608093E0
:1010B00021018091200181608093200180917A003C
:1010C000846080937A0080917A00826080937A00B5
:1010D00080917A00816080937A0080917A008068A4
:1010E00080937A001092C100E0915C02F0915D0261
:1010F00082E08083E0915802F09159021082E091E1
:101100005A02F0915B028FEC808310926402E091AE
:101110006002F091610286E08083E0915E02F091CE
:101120005F02808180618083E0915E02F0915F02C6
:10113000808188608083E0915E02F0915F0280810F
:1011400080688083E0915E02F0915F0280818F7DF4
:10115000808385E30E94820184E30E94820183E30D
:101160000E948201BB24B39404E010E033E0E32E3C
:10117000F12CCC24C394D12C8CE492E00E94E8049E
:10118000181619060CF03EC08CE492E00E94C604CA
:10119000C82F682F8CE492E00E94200542E050E0C6
:1011A00067E372E08CE492E00E948A04EFE9EC0FBE
:1011B000EA3108F027C00E2E000CFF0B8827EC51F7
:1011C000F74F8F4F0C94A00BB409AF09A309BE09C8
:1011D000D909C509CA09020902090209F309020964
:1011E000EA090209FA090209CF09E009B909E50982
:1011F0000209AA09D4099E090209FE0810924B02AD
:1012000010924A0280914502882379F188E30E9476
:101210004A06EC01E0914A02F0914B02EE0FFF1FEB
:10122000E55DFD4F60817181072E000C880B990BE5
:101230000E94660A2B013C01BE01DD0F880B990B51
:101240000E94660A20E030E040E05BE30E94CA0AA8
:101250009B01AC01C301B2010E94CA0A0E942E0A7E
:10126000CB010E94A1010E9486068091440288233E
:1012700079F187E30E944A06EC01E0914802F0917F
:101280004902EE0FFF1FE15EFD4F60817181072E65
:10129000000C880B990B0E94660A2B013C01BE01D1
:1012A000DD0F880B990B0E94660A20E030E040E0D9
:1012B0005BE30E94CA0A9B01AC01C301B2010E9418
:1012C000CA0A0E942E0ACB010E94A1010E94860632
:1012D00080914302882379F186E30E944A06EC015B
:1012E000E0914602F0914702EE0FFF1FED5EFD4FC9
:1012F00060817181072E000C880B990B0E94660A91
:101300002B013C01BE01DD0F880B990B0E94660A80
:1013100020E030E040E05BE30E94CA0A9B01AC01A0
:10132000C301B2010E94CA0A0E942E0ACB010E9488
:10133000A1010E9486060E948D051ECFD0924B020D
:10134000C0924A025FCF82E090E090934B0280937C
:101350004A0258CFF0924B02E0924A0253CF1093C8
:101360004B0200934A024ECF10924902109248025B
:1013700049CFD0924902C092480244CF82E090E027
:1013800090934902809348023DCFF0924902E09247
:10139000480238CF109349020093480233CF10928D
:1013A0004702109246022ECFD0924702C0924602C8
:1013B00029CF82E090E0909347028093460222CFAB
:1013C000F0924702E09246021DCF1093470200932D
:1013D000460218CF609145026B256093450285E374
:1013E0000E94BE050FCF609144026B2560934402BA
:1013F00084E3F6CF609143026B256093430283E35D
:10140000EFCFECE4F2E01382128288EE93E0A0E0EA
:10141000B0E084839583A683B78385E092E09183CF
:10142000808385EC90E09587848784EC90E09787B3
:10143000868780EC90E0918B808B81EC90E0938BA1
:10144000828B82EC90E0958B848B86EC90E0978B7E
:10145000868B118E128E138E148E08950E94350A7B
:101460006894B1110C94C40A08950E94A90A88F0E6
:101470009F5798F0B92F9927B751B0F0E1F0660F58
:10148000771F881F991F1AF0BA95C9F714C0B13099
:1014900091F00E94C30AB1E008950C94C30A672F2B
:1014A000782F8827B85F39F0B93FCCF386957795C8
:1014B0006795B395D9F73EF49095809570956195B1
:1014C0007F4F8F4F9F4F0895E89409C097FB3EF4DC
:1014D00090958095709561957F4F8F4F9F4F992381
:1014E000A9F0F92F96E9BB279395F69587957795FF
:1014F0006795B795F111F8CFFAF4BB0F11F460FFBF
:101500001BC06F5F7F4F8F4F9F4F16C0882311F016
:1015100096E911C0772321F09EE8872F762F05C02A
:10152000662371F096E8862F70E060E02AF09A95C5
:10153000660F771F881FDAF7880F9695879597F9BA
:10154000089557FD9058440F551F59F05F3F71F0B3
:101550004795880F97FB991F61F09F3F79F087951A
:101560000895121613061406551FF2CF4695F1DFA3
:1015700008C0161617061806991FF1CF8695710533
:10158000610508940895E894BB2766277727CB0167
:1015900097F908950E94DD0A0C944E0B0E94400BAF
:1015A00038F00E94470B20F0952311F00C94370B74
:1015B0000C943D0B11240C94C40A0E94A10A70F3F0
:1015C000959FC1F3950F50E0551F629FF001729FE8
:1015D000BB27F00DB11D639FAA27F00DB11DAA1FF7
:1015E000649F6627B00DA11D661F829F2227B00D44
:1015F000A11D621F739FB00DA11D621F839FA00DCF
:10160000611D221F749F3327A00D611D231F849F1E
:10161000600D211D822F762F6A2F11249F57504075
:101620009AF0F1F088234AF0EE0FFF1FBB1F661FF0
:10163000771F881F91505040A9F79E3F510580F0B9
:101640000C94370B0C94C40A5F3FE4F3983ED4F338
:10165000869577956795B795F795E7959F5FC1F75D
:10166000FE2B880F911D9695879597F9089597F908
:101670009F6780E870E060E008959FEF80EC089538
:1016800000240A9416161706180609060895002461
:101690000A9412161306140605060895092E0394DB
:1016A000000C11F4882352F0BB0F40F4BF2B11F44F
:1016B00060FF04C06F5F7F4F8F4F9F4F0895A1E27F
:1016C0001A2EAA1BBB1BFD010DC0AA1FBB1FEE1FBC
:1016D000FF1FA217B307E407F50720F0A21BB30B07
:1016E000E40BF50B661F771F881F991F1A9469F783
:1016F00060957095809590959B01AC01BD01CF01DF
:101700000895052E97FB1EF400940E94980B57FD38
:1017100007D00E945F0B07FC03D04EF40C94980B8B
:1017200050954095309521953F4F4F4F5F4F08950D
:1017300090958095709561957F4F8F4F9F4F08953D
:10174000EE0FFF1F881F8BBF0790F691E02D1994B5
:10175000A29FB001B39FC001A39F700D811D1124F2
:10176000911DB29F700D811D1124911D0895F89453
:02177000FFCFA9
:10177200FF0000000020058A04B7046D05E804C6D6
:1017820004DA04C400D000B801D201EE01000093D3
:10179200009C00A500AF00B900000062006800DCF8
:0A17A20000E900F70000000D0A0046
:00000001FF
