:100000000C943C010C946D010C946D010C946D01E9
:100010000C946D010C946D010C946D010C946D01A8
:100020000C946D010C946D010C946D010C946D0198
:100030000C946D010C94A5040C946D010C946D014D
:100040000C946D010C946D010C946D010C946D0178
:100050000C946D010C946D010C946D010C9465056C
:100060000C946D010C942F050C9405050C946D01F6
:100070000C946D010C946D010C946D010C946D0148
:100080000C946D010C946D010C946D010C946D0138
:100090000C946D010C946D010C946D010C946D0128
:1000A0000C946D010C946D010C946D010C946D0118
:1000B0000C946D010C946D010C946D010C946D0108
:1000C0000C946D010C946D010C946D010C946D01F8
:1000D0000C946D010C946D010C946D010C946D01E8
:1000E0000C946D010C94F7030C9487030C94950306
:1000F0000C948B030C947D030C943E020C946002D0
:100100000C9473030C946F030C9462030C946603B9
:100110000C9494030C9454030C94C6030C940202A4
:100120000C9479030C9481030C942F020C94990382
:100130000C94AF050C9452020C947C040C945A035A
:100140000C945E030C94E5020C9469030C949802E1
:100150000C948F0300002100240027002A002D00AA
:100160003000330001010000040107010A01000012
:1001700020002300260029002C002F00320000015F
:10018000000003010601090100000A0B02090C0D21
:100190000E0807030401000000000000000000003A
:1001A000000000000000000000000000000000004F
:1001B000000000001211100000000000000000000C
:1001C000000000000000000000000000000001022C
:1001D0001020200808102040102040800201020159
:1001E0000804020101020408102040808040201011
:1001F000080402018004020180402010080402016A
:1002000008040201010204081020408001020408D1
:100210001020408000002200250028002B002E0026
:100220003100340002010000050108010B01050541
:100230000505070508080808020202020A0A08085C
:10024000040404040101010101010101030303038A
:1002500003030303040707070C0C0C0C0C0C0C0C19
:100260000202020206060606060606060B0B0B0B2A
:100270000B0B0B0B0200AF0511241FBECFEFD1E219
:10028000DEBFCDBF00E00CBF17E0A0E0B2E0EEE6BD
:10029000FBE100E00BBF02C007900D92A83CB10744
:1002A000D9F728E0A8ECB7E001C01D92AD3FB20736
:1002B000E1F711E0CCE3D1E000E006C021970109AD
:1002C000802FFE010E94830DCB33D10780E0080709
:1002D000A9F70E943D060C94B50D0C94000096E021
:1002E000899FD0011124A257B74F90967C936E93AB
:1002F0005F9791E091969C939197E091FB08F09124
:10030000FC089091FA08992339F0309751F0811147
:1003100008C08091AA081994309719F05C968C91C6
:10032000FACF0895CF92DF92EF92FF920F931F932F
:1003300096E0899FF0011124E257F74F11A2278D13
:1003400030A12130310551F178F02230310509F426
:1003500051C02330310509F452C01F910F91FF9015
:10036000EF90DF90CF9008956623B9F361E070E0DD
:100370000E946F012FB7F8948091ED079091EE07DE
:10038000A091EF07B091F0072FBF8093E6089093FC
:10039000E708A093E808B093E908DFCF9FB7F89487
:1003A000C090ED07D090EE07E090EF07F090F007D7
:1003B0009FBF0091E6081091E7082091E80830916E
:1003C000E908C01AD10AE20AF30A0091F80810916C
:1003D000F90830E020E00C151D052E053F0550F40E
:1003E00062E070E01F910F91FF90EF90DF90CF904F
:1003F0000C946F016111B1CF63E070E0F3CF70E056
:1004000060E0F0CFAF92BF92CF92DF92EF92FF9277
:100410000F931F93CF93DF936C017B018B01040F2C
:10042000151FEB015E01AE18BF08C017D10759F0C8
:100430006991D601ED91FC910190F081E02DC6010A
:100440001995892B79F7C501DF91CF911F910F91F4
:10045000FF90EF90DF90CF90BF90AF900895FC0198
:10046000538D448D252F30E0842F90E0821B930B19
:10047000541710F0CF96089501970895FC01918DBF
:10048000828D981761F0A28DAE0FBF2FB11D5D96C2
:100490008C91928D9F5F9F73928F90E008958FEF64
:1004A0009FEF0895FC01918D828D981731F0828D18
:1004B000E80FF11D858D90E008958FEF9FEF08956F
:1004C000FC01918D228D892F90E0805C9F4F821BD3
:1004D00091098F739927089581EF97E00E94600238
:1004E00021E0892B09F420E0822F0895FC01A48DDE
:1004F000A80FB92FB11DA35ABF4F2C91848D90E046
:1005000001968F739927848FA689B7892C93A08928
:10051000B1898C91837080648C93938D848D9813B2
:1005200006C00288F389E02D80818F7D8083089545
:10053000EF92FF920F931F93CF93DF93EC0181E033
:10054000888F9B8D8C8D98131AC0E889F9898081DA
:1005500085FF15C09FB7F894EE89FF896083E8890D
:10056000F98980818370806480839FBF81E090E0FF
:10057000DF91CF911F910F91FF90EF900895F62E8C
:100580000B8D10E00F5F1F4F0F731127E02E8C8D26
:100590008E110CC00FB607FCFACFE889F98980816B
:1005A00085FFF5CFCE010E947602F1CFEB8DEC0FE7
:1005B000FD2FF11DE35AFF4FF0829FB7F8940B8F88
:1005C000EA89FB8980818062CFCFCF93DF93EC01F2
:1005D000888D8823B9F0AA89BB89E889F9898C912B
:1005E00085FD03C0808186FD0DC00FB607FCF7CFE7
:1005F0008C9185FFF2CF808185FFEDCFCE010E94E7
:100600007602E9CFDF91CF91089580E090E0892BC9
:1006100029F00E946C0281110E94000080E090E0AD
:10062000892B49F080E090E0892B29F00E9400009E
:1006300081110E94000080E090E0892B49F080E069
:1006400090E0892B29F00E94000081110E94000097
:1006500080E090E0892B49F080E090E0892B29F040
:100660000E94000081110C94000008958150823195
:1006700008F05AC0E82FF0E08827EE5BFC4F8F4F60
:100680000C94830D6203660354035A035E039403C0
:1006900069036F03730379037D03810387038B036E
:1006A00094038F0395039903809180008F77809343
:1006B00080000895809180008F7DF9CF8091800027
:1006C000877FF5CF84B58F7784BD089584B58F7DFE
:1006D000FBCF8091B0008F778093B0000895809118
:1006E000B0008F7DF9CF809190008F77809390003C
:1006F0000895809190008F7DF9CF80919000877F41
:10070000F5CF8091A0008F778093A000089580910D
:10071000A0008F7DF9CF8091A000877FF5CF8091D9
:1007200020018F77809320010895809120018F7D93
:10073000F9CF80912001877FF5CFCF93DF93282FCA
:1007400030E0F901E857FE4F8491F901E253FE4F82
:10075000D491F901E25DFD4FC491CC23A1F0811148
:100760000E943603EC2FF0E0EE0FFF1FE259FE4F20
:10077000A591B491EC91ED2381E090E009F480E043
:10078000DF91CF91089580E090E0FACF862F0C940E
:100790009D031F93CF93DF93282F30E0F901E85793
:1007A000FE4F8491F901E253FE4FD491F901E25DCD
:1007B000FD4FC491CC23A9F0162F81110E9436035E
:1007C000EC2FF0E0EE0FFF1FEC5EFD4FA591B49112
:1007D0008FB7F894EC91111108C0D095DE23DC930B
:1007E0008FBFDF91CF911F910895DE2BF8CF862F19
:1007F000642F0C94C90390917A0789130DC0E4E724
:10080000F2E0E4919FEF90937A07E230E1F038F460
:10081000EE2381F0E13089F060E00C94C903E4300C
:1008200049F110F1E530C1F7909173009D7F9093ED
:100830007300F2CF10926E00EFCF90916F009D7F0A
:1008400090936F00E9CF909170009D7F909370001E
:1008500091E09093B0009091B100987F9460909354
:10086000B1001092B300D8CF909171009D7F90930A
:100870007100D2CF909172009D7F90937200CCCF87
:10088000CF93DF9390E0FC01E253FE4F2491825D11
:100890009D4FFC0184918823C9F090E0880F991F37
:1008A000FC01EC5AFE4FA591B491FC01EC5EFD4FAA
:1008B000C591D49161110DC09FB7F8948C9120958A
:1008C00082238C938881282328839FBFDF91CF9137
:1008D0000895623051F49FB7F8943C91822F80952F
:1008E00083238C93E8812E2BEFCF8FB7F894EC9174
:1008F0002E2B2C938FBFEACF862F642F0C944004AD
:100900003FB7F8948091C9079091CA07A091CB078F
:10091000B091CC0726B5A89B05C02F3F19F00196D2
:10092000A11DB11D3FBFBA2FA92F982F8827BC0149
:10093000CD01620F711D811D911D42E0660F771F71
:10094000881F991F4A95D1F708951F920F920FB6ED
:100950000F9211240BB60F922F933F934F935F93F7
:100960006F937F938F939F93AF93BF93EF93FF9377
:100970008091E1079091E207A091E307B091E4072D
:10098000892B8A2B8B2BE1F19091D007E091D10735
:10099000F091D2078081892780838091E10790912F
:1009A000E207A091E307B091E407181619061A06AA
:1009B0001B069CF48091E1079091E207A091E30768
:1009C000B091E4070197A109B1098093E1079093E1
:1009D000E207A093E307B093E407FF91EF91BF9183
:1009E000AF919F918F917F916F915F914F913F91C7
:1009F0002F910F900BBE0F900FBE0F901F90189568
:100A000080917A070E94FB03E8CF1F920F920FB6E6
:100A10000F9211240BB60F922F933F934F935F9336
:100A20006F937F938F939F93AF93BF93EF93FF93B6
:100A300081EF97E00E947602FF91EF91BF91AF9115
:100A40009F918F917F916F915F914F913F912F91E6
:100A50000F900BBE0F900FBE0F901F9018951F9216
:100A60000F920FB60F9211240BB60F922F938F9304
:100A70009F93EF93FF93E0910108F091020880812A
:100A8000E0910708F091080882FD1DC090818091D7
:100A90000A088F5F8F7320910B08821741F0E09155
:100AA0000A08F0E0EF50F84F958F80930A08FF9105
:100AB000EF919F918F912F910F900BBE0F900FBED2
:100AC0000F901F9018958081F2CF1F920F920FB652
:100AD0000F9211242F933F938F939F93AF93BF93C4
:100AE0008091ED079091EE07A091EF07B091F0078C
:100AF0003091C80723E0230F2D3758F50196A11D2B
:100B0000B11D2093C8078093ED079093EE07A09343
:100B1000EF07B093F0078091C9079091CA07A091A1
:100B2000CB07B091CC070196A11DB11D8093C907D9
:100B30009093CA07A093CB07B093CC07BF91AF9116
:100B40009F918F913F912F910F900FBE0F901F900B
:100B5000189526E8230F0296A11DB11DD2CF109241
:100B6000F4071092F30788EE93E0A0E0B0E08093E2
:100B7000F5079093F607A093F707B093F80780EB7B
:100B800097E09093F2078093F10785EC90E09093C3
:100B9000FE078093FD0784EC90E09093000880931B
:100BA000FF0780EC90E0909302088093010881ECAD
:100BB00090E0909304088093030882EC90E0909377
:100BC00006088093050886EC90E0909308088093CF
:100BD000070810920A0810920B0810920C08109245
:100BE0000D08109290081092940810929308109299
:100BF000950882EC97E090938F0880938E08EAEA3C
:100C0000F8E01082148213821582369688E0E63E60
:100C1000F807B9F78EE797E09093F1088093F00812
:100C20008BE797E09093F3088093F20884E0809339
:100C3000F40883E08093F50882E897E09093EF084A
:100C40008093EE088AE090E09093F7088093F6088E
:100C500084EF91E09093F9088093F8081092FC08D3
:100C60001092FB081092EA081092EB081092EC0820
:100C70001092ED081092FA080895CF93DF93CDB744
:100C8000DEB72F970FB6F894DEBF0FBECDBF7894B6
:100C900084B5826084BD84B5816084BD85B5826081
:100CA00085BD85B5816085BD80916E008160809332
:100CB0006E0010928100809181008260809381009B
:100CC00080918100816080938100809180008160AB
:100CD000809380008091B10084608093B100809106
:100CE000B00081608093B000809191008260809319
:100CF000910080919100816080939100809190009B
:100D00008160809390008091A10082608093A10017
:100D10008091A10081608093A1008091A0008160FA
:100D20008093A000809121018260809321018091B5
:100D30002101816080932101809120018160809355
:100D4000200180917A00846080937A0080917A00FB
:100D5000826080937A0080917A00816080937A002B
:100D600080917A00806880937A001092C100E091AF
:100D70000108F091020882E08083E091FD07F09184
:100D8000FE071082E091FF07F09100088FEC80834E
:100D900010920908E0910508F091060886E080832A
:100DA000E0910308F0910408808180618083E091E4
:100DB0000308F0910408808188608083E091030833
:100DC000F0910408808180688083E0910308F091AD
:100DD000040880818F7D808381E08093FA088FB73B
:100DE000F8944091ED075091EE076091EF077091F4
:100DF000F0078FBF8091EA089091EB08A091EC0872
:100E0000B091ED08481B590B6A0B7B0B8091F608DB
:100E10009091F708B0E0A0E084179507A607B70700
:100E200008F03CC119828091F4082981281770F4D8
:100E3000E091F008F091F108E20FF11D62E080818D
:100E40000E94400439813F5F3983EDCFB12C8091FE
:100E5000F508B81608F074C00B2D10E0E091F20808
:100E6000F091F308E00FF11F61E080810E944004DF
:100E7000E091F208F091F308E00FF11F60E080814B
:100E80000E94C90381E090E0A0E0B0E00B2C04C018
:100E9000880F991FAA1FBB1F0A94D2F76C017C010F
:100EA000E094F094A12C8091F408A81690F58A2D76
:100EB00090E09A838983E091F008F091F108DC01D9
:100EC000EA0FFB1F80810E949D03E981FA8134961D
:100ED000FA83E983892B61F4EE0FFF1FE257F74F86
:100EE000808191818C299D2991838083A394DBCF7C
:100EF00029813A81220F331F2257374F3A832983A2
:100F0000D9018D919C9111978E219F218D939C9356
:100F1000EDCFE091F208F091F308E00FF11F61E0EE
:100F200080810E94C9038091F2089091F308080F14
:100F3000191F60E0F80180810E944004B39487CFBC
:100F4000EEE8CE2EE8E0DE2EDA82C9828FEF9FEF48
:100F5000A981BA815F962D913C919097232B49F4FA
:100F60005C961C925C975E969C938E935D9791968F
:100F70001C92E981FA813696FA83E983EA5CF840AB
:100F800039F7F12C76E0B72E8091F408F81608F0C6
:100F900050C0E12C0F2D10E0000F111F0A56174F03
:100FA0002091F508E21608F042C0D8016D917C91BD
:100FB0000E2C02C0769567950A94E2F7F29E900196
:100FC00011242E0D311DEEE8F8E080E0458D568DA0
:100FD0002417350709F40FC48F5F36968A30B1F7AE
:100FE00060FF23C0EEE8F8E090E080E0448D41111E
:100FF00017C0E091EE08F091EF08E20FF31F608157
:10100000B89EF001B99EF00D1124E257F74F648F9E
:10101000368F258F10A2178E61E00E94920105C0C5
:10102000019636968A30910509F7E394B9CFF39487
:10103000ABCF80E0F60191A19111892FF6E0CF0EA0
:10104000D11C29813A812C153D05A1F79FB7F89451
:101050004091ED075091EE076091EF077091F00716
:101060009FBF4093EA085093EB086093EC0870939D
:10107000ED08882399F08091AF08882379F080915A
:10108000AD089091AE08019749F48091AA089FECB1
:10109000980F953030F00E9405039ECE1092FA080A
:1010A000FACF082E000C990BC197312C212C880FF8
:1010B000991FFC01EE55F84FA081B181BA87A9872D
:1010C000FC01E856F84FFC87EB879C012257384F0C
:1010D0003E872D8789859A8528163906E4F6809102
:1010E0007B00886080937B0087E480937C00809104
:1010F0007A00806480937A0080917A0086FDFCCF2C
:101100003091780020917900AB85BC85ED91FC9100
:10111000C101880F991F9A838983E80FF91F6081A5
:1011200071818CE291E00E942E0D8B012B01770FD3
:1011300066087708722F632F072E000C880B990B17
:101140000E94350C20E030E040E05BE30E94990C07
:101150006B017C01AD85BE858D919C91E981FA8101
:10116000E80FF91F60817181072E000C880B990B25
:101170000E94350C9B01AC01C701B6010E94990C7D
:101180000E94FD0B69837A838B839C8380917A070D
:10119000883009F0C3C0E4E7F2E024912F8727FDEF
:1011A00000C261E088E00E9440049F85992321F0FD
:1011B000AF85A23009F028C2E981FA814F01B12C34
:1011C000A12C60E072E18AE790E0A5019F010E94F6
:1011D000640D2D833E834F83588769017A01F1E0C6
:1011E000CF1AD108E108F1082FEFC216D104E104AB
:1011F000F10409F00CF4B8C160E472E48FE090E00F
:10120000A50194010E94640D69017A0181E0C81A68
:10121000D108E108F1089F85923009F059C182E0B8
:10122000AFEFCA16D104E104F10409F00CF46FC069
:1012300060E970ED83E090E0A50194010E94640DE7
:1012400069017A01B1E0CB1AD108E108F10883E025
:10125000EFEFCE16D104E104F10409F00CF457C00D
:1012600068E478EE81E090E0A50194010E94640DAD
:1012700069017A0181E0C81AD108E108F10884E027
:101280009FEFC916D104E104F10409F00CF43FC04A
:1012900064E274EF80E090E0A50194010E94640D87
:1012A00069017A01A1E0CA1AD108E108F10885E0D4
:1012B000FFEFCF16D104E104F10449F140F162E1FE
:1012C0007AE780E090E0A50194010E94640D690135
:1012D0007A01B1E0CB1AD108E108F10886E0EFEF1E
:1012E000CE16D104E104F10491F088F0CD80DE80C7
:1012F000EF80F8849AE0F594E794D794C7949A9590
:10130000D1F721E0C21AD108E108F10887E09091F5
:10131000B100987F892B8093B1002EC18F3F09F0D7
:1013200040C188E080937A07E4E7F2E034913F8798
:10133000832F3F3F09F435C1323009F469C060F4AE
:10134000332381F1313009F445C087FD2AC161E0C2
:1013500088E00E9440042CCF4F85443009F49AC0A5
:1013600008F478C0453089F71092200110922101CD
:101370008091210188608093210180912101816009
:1013800080932101E6E3F2E0E491F0E0EE0FFF1F2D
:10139000EC5EFD4F85919491E6EDF1E0E491E093F0
:1013A000CD07FFCE14BC15BC84B5826084BD85B565
:1013B000816085BDE6E3F2E0E491F0E0EE0FFF1F0F
:1013C000EC5EFD4F85919491E6EDF1E0E491E093C0
:1013D000D407E7CE109280001092810080918100A6
:1013E000886080938100809181008160809381007A
:1013F000E6E3F2E0E491F0E0EE0FFF1FEC5EFD4F5C
:1014000085919491E6EDF1E0E491E093D307C9CEA4
:101410001092B0001092B1008091B0008260809371
:10142000B0008091B10081608093B100E6E3F2E00A
:10143000E491F0E0EE0FFF1FEC5EFD4F859194917B
:101440009093D2078093D107E6EDF1E0E491E09329
:10145000D007A7CE10929000109291008091910039
:1014600088608093910080919100816080939100C9
:10147000E6E3F2E0E491F0E0EE0FFF1FEC5EFD4FDB
:1014800085919491E6EDF1E0E491E093CF0783E05C
:101490008F8787CE1092A0001092A1008091A100AA
:1014A00088608093A1008091A10081608093A10059
:1014B000E6E3F2E0E491F0E0EE0FFF1FEC5EFD4F9B
:1014C00085919491E6EDF1E0E491E093CE0769CE49
:1014D000FFEFCF16D104E104F10409F00CF492C03F
:1014E00068E478EE81E090E0A50194010E94640D2B
:1014F00069017A0181E0C81AD108E108F1089F85E5
:1015000084E09111D5CE83E0AFEFCA16D104E10497
:10151000F10471F16CF162E17AE780E090E0A501FD
:1015200094010E94640D69017A01B1E0CB1AD108DF
:10153000E108F10884E0EFEFCE16D104E104F104F4
:10154000B9F0B0F0CD80DE80EF80F8848AE0F594C9
:10155000E794D794C7948A95D1F731E0C31AD1089C
:10156000E108F10885E004C081E0FF85F111CFCEEC
:1015700095B5987F892B85BD2FEF3FEFA9014114C9
:1015800051046104710409F06BC08F85823009F445
:101590001BC10CF0F0C0882309F4F5C0813009F4B8
:1015A00001C1C301B2010E94350C26E636E646EAC7
:1015B0005FE30E94990C0E94FD0B6B01770FEE0810
:1015C000FF080E9480044B015C01C114D104E104B6
:1015D000F10409F409C10E948004681979098A0993
:1015E0009B09683E73408105910578F3A1E0CA1A12
:1015F000D108E108F108B8EE8B0EB3E09B1EA11CE8
:10160000B11CE3CF82E0B1CF29813A814901B12CED
:10161000A12C60E072E18AE790E0A5010E94640DD0
:1016200069017A0181E0C81AD108E108F108C11402
:10163000D10491E0E906F1040CF591E0BF85B130E9
:1016400071F580918100887F892B809381002FEF35
:101650003FEFA901411451046104710409F4A2C0CF
:1016600029813A81220F331FD8010E948B0D28EE69
:1016700033E040E050E00E94420D87CF68E478EE0E
:1016800081E090E0A50194010E94640D69017A0156
:10169000A1E0CA1AD108E108F10893E0CFCFEF85A5
:1016A000E33001F580919100887F892B8093910030
:1016B0002FEF3FEFA901411451046104710481F639
:1016C000D0929900C09298002093DD073093DE07F6
:1016D0004093DF075093E007809171008260809310
:1016E00071005FCFFF85F43009F58091A100887FFC
:1016F000892B8093A1002FEF3FEFA90141145104E2
:101700006104710409F0ACCFD092A900C092A80086
:101710002093D9073093DA074093DB075093DC0717
:10172000809172008260809372003BCF2F852530BC
:1017300009F022CF80912101887F892B809321019C
:101740002FEF3FEFA901411451046104710409F026
:1017500087CFD0922901C09228012093D5073093DA
:10176000D6074093D7075093D807809173008260C3
:101770008093730016CF9F85943031F20CF4A0CF84
:10178000953039F30ECFC7BC2093E9073093EA07B1
:101790004093EB075093EC0780916E00826080933A
:1017A0006E00FFCED0928900C09288002093E5079A
:1017B0003093E6074093E7075093E80780916F0066
:1017C000826080936F00EDCEC092B3002093E1075A
:1017D0003093E2074093E3075093E4078091700051
:1017E000826080937000DDCE88E00E94FB03FFEFF3
:1017F0002F1A3F0A6FCC617010CC0E94040C6894C1
:10180000B1110C94930C08950E94780C88F09F57A6
:1018100098F0B92F9927B751B0F0E1F0660F771F14
:10182000881F991F1AF0BA95C9F714C0B13091F00A
:101830000E94920CB1E008950C94920C672F782FBF
:101840008827B85F39F0B93FCCF3869577956795CF
:10185000B395D9F73EF490958095709561957F4F3B
:101860008F4F9F4F0895E89409C097FB3EF49095E1
:101870008095709561957F4F8F4F9F4F9923A9F069
:10188000F92F96E9BB279395F695879577956795F8
:10189000B795F111F8CFFAF4BB0F11F460FF1BC03C
:1018A0006F5F7F4F8F4F9F4F16C0882311F096E9CF
:1018B00011C0772321F09EE8872F762F05C066237D
:1018C00071F096E8862F70E060E02AF09A95660F36
:1018D000771F881FDAF7880F9695879597F90895EF
:1018E00057FD9058440F551F59F05F3F71F04795D1
:1018F000880F97FB991F61F09F3F79F087950895B6
:10190000121613061406551FF2CF4695F1DF08C0D4
:10191000161617061806991FF1CF869571056105F1
:1019200008940895E894BB2766277727CB0197F999
:1019300008950E94AC0C0C941D0D0E940F0D38F000
:101940000E94160D20F0952311F00C94060D0C94B6
:101950000C0D11240C94930C0E94700C70F3959F45
:10196000C1F3950F50E0551F629FF001729FBB2796
:10197000F00DB11D639FAA27F00DB11DAA1F649F32
:101980006627B00DA11D661F829F2227B00DA11DE5
:10199000621F739FB00DA11D621F839FA00D611D6B
:1019A000221F749F3327A00D611D231F849F600D8C
:1019B000211D822F762F6A2F11249F5750409AF0B5
:1019C000F1F088234AF0EE0FFF1FBB1F661F771F41
:1019D000881F91505040A9F79E3F510580F00C940C
:1019E000060D0C94930C5F3FE4F3983ED4F3869578
:1019F00077956795B795F795E7959F5FC1F7FE2BAC
:101A0000880F911D9695879597F9089597F99F6787
:101A100080E870E060E008959FEF80EC0895002476
:101A20000A941616170618060906089500240A9443
:101A300012161306140605060895092E0394000CC9
:101A400011F4882352F0BB0F40F4BF2B11F460FF58
:101A500004C06F5F7F4F8F4F9F4F089597FB072EF6
:101A600016F4009407D077FD09D00E94920D07FC70
:101A700005D03EF4909581959F4F0895709561959E
:101A80007F4F0895A1E21A2EAA1BBB1BFD010DC0BA
:101A9000AA1FBB1FEE1FFF1FA217B307E407F5071E
:101AA00020F0A21BB30BE40BF50B661F771F881FFA
:101AB000991F1A9469F760957095809590959B0190
:101AC000AC01BD01CF010895052E97FB1EF40094D3
:101AD0000E947B0D57FD07D00E94420D07FC03D0EA
:101AE0004EF40C947B0D50954095309521953F4FC9
:101AF0004F4F5F4F089590958095709561957F4FFA
:101B00008F4F9F4F0895EE0FFF1F881F8BBF0790C9
:101B1000F691E02D19940E94A60DB7FF0895821B3F
:101B2000930B0895AA1BBB1B51E107C0AA1FBB1F43
:101B3000A617B70710F0A61BB70B881F991F5A9559
:101B4000A9F780959095BC01CD010895A29FB001A1
:101B5000B39FC001A39F700D811D1124911DB29FE1
:0E1B6000700D811D1124911D0895F894FFCF82
:101B6E004A014A015D01880188015D014A01260191
:101B7E000601060126014A014A01260126014A01F3
:101B8E004A015D01880188015D014A0126010601B5
:101B9E00060126014A01260106010601260126013B
:101BAE004A01060126014A015D014A01060126018C
:101BBE004A015D014A012601060126012601B801EE
:101BCE00B801B80126012601B801B801B8012601F5
:101BDE00B801D2010B02B8014B020B020B02D2016B
:101BEE00D201B801B80188015D0188010B02B8016C
:101BFE002601060126014A015D014A015D018801A7
:101C0E00B8010B02D201B80188015D014A0126011B
:101C1E000601880188018801B801D201B801880146
:101C2E005D018801B80188015D014A015D018801ED
:101C3E005D014A012601D201B801B801880188016F
:101C4E005D015D014A01B801880188015D015D01F8
:101C5E004A014A0126015D015D018801B801260194
:101C6E00260126012601260126012601260126012E
:101C7E00260126012601260126012601260126011E
:101C8E002601260126012601260126012601DC0059
:101C9E0006012601260126014A015D015D015D0155
:101CAE0088014A014A0126010601060126010000AB
:101CBE00DC000601F7002601F7004A015D015D0117
:101CCE000601060106010601260106012601000095
:101CDE000000DC0006012601260126015D018801B7
:101CEE0088018801B801B801B801B8018801B801AE
:101CFE00260100002601A5005D015D018801B801E5
:101D0E002601000026015D014A014A015D012601FE
:101D1E004D0A4D0A00004D0A00002D084D0A000024
:101D2E00400C000000000000200600000000000033
:101D3E002D0800000000200600000000270500000E
:101D4E000000E0060000B80700004907E0060000AA
:101D5E0020064D0A400CC00D0000EA0A400C00009F
:101D6E004D0A00002D082D09B807000000002D08AF
:101D7E000000000020060000000027050000000003
:101D8E00E0060000B80700004907E0060000200644
:101D9E004D0A400CC00D0000EA0A400C00004D0A2E
:101DAE0000002D082D09B8070000000006010B02E7
:101DBE00DC00B801E900D2010000000006010B02B0
:101DCE00DC00B801E900D20100000000AF005D01A7
:101DDE00930026019C00370100000000AF005D015A
:101DEE00930026019C003701000000003701150109
:101DFE002601150137013701D000C4001501060177
:101E0E0072015D01A500D201B8019F013701F700F3
:101E1E00E900DC00D0000000000000000400040017
:101E2E000400040004000400040004000400040084
:101E3E000400040001000800020004000400040075
:101E4E000400040004000400040004000400040064
:101E5E000400010008000200040004000400040055
:101E6E000400080008000400040004000800080034
:101E7E00040004000400040004000800080004002C
:101E8E000400040008000800040004000400080018
:101E9E0008000200080008000800080008000800FA
:101EAE0008000800040008000800020008000800EE
:101EBE0008000800080008000800080008000800D4
:101ECE0008000800080008000800080004000800C8
:101EDE0008000400040004000800080004000400C8
:101EEE0004000800080004000400040008000800B4
:101EFE00020008000800080008000800080008009A
:101F0E000800080008000800080008000800080083
:101F1E000800040008000800020004000800040085
:101F2E00080004000800080008000800040008006B
:101F3E00040008000400080008000800080004005F
:101F4E00080004000800040008000800080008004B
:101F5E000400040008000800040004000800080043
:101F6E00040004000800080008000400080008002F
:101F7E000800040004000800080004000400080023
:101F8E000800040004000800040004000800080013
:101F9E000800080004000400080008000400040003
:101FAE0008000800040004000800080008000400EF
:101FBE0008000800080004000400040008000400E3
:101FCE0008000800080004000400080008000C00C7
:101FDE000C000C000C000C000C000C000C000C0093
:101FEE000C000C000C000C000C000C000C000C0083
:101FFE000C000C000C000C000C000C000C000C0073
:10200E000C000C000C000C000C000C000C00090065
:10201E00090009000C000C000C000C000C000C0058
:10202E000C000C000C000C000C000C000C000C0042
:10203E000C000C000C000C000C000C000C000C0032
:10204E000C000C000C000C000C000C000900090028
:10205E0009000C000C000C000C000C000C000C0015
:10206E000C000C000C000C000C000C000C000C0002
:10207E000C000C000C00060003000C000C000C0001
:10208E000C000C000C00060003000C000C000C00F1
:10209E000C000C000C00060003000C000C000C00E1
:1020AE000C000C000C0006000600120012001200BC
:1020BE0006000600060006000600060012001200CA
:1020CE0012001200120012000A000A000A000A0092
:1020DE000A000A00030003000300FF161718191A5E
:1020EE001B1C3132333435363738392A30234C0401
:1020FE00B003FE025C0200020A076E06BA0518055E
:10210E00BC0438004E00590051002E0000000000A3
:10211E00980202022F02E50260023E025202000005
:08212E0000007C04F703C60366
:00000001FF
