:100000000C943B010C946C010C946C010C946C01ED
:100010000C946C010C946C010C946C010C946C01AC
:100020000C946C010C946C010C946C010C946C019C
:100030000C946C010C946C010C946C010C946C018C
:100040000C946C010C946C010C946C010C946C017C
:100050000C946C010C946C010C946C010C9468046D
:100060000C946C010C9432040C9408040C946C01F4
:100070000C946C010C946C010C946C010C946C014C
:100080000C946C010C946C010C946C010C946C013C
:100090000C946C010C946C010C946C010C946C012C
:1000A0000C946C010C946C010C946C010C946C011C
:1000B0000C946C010C946C010C946C010C946C010C
:1000C0000C946C010C946C010C946C010C946C01FC
:1000D0000C946C010C946C010C946C010C946C01EC
:1000E0000C946C010C9429030C94B2040C940C0233
:1000F0000C9445030C9415030C9441030C94D80301
:100100000C949B010C941B030C9400030C940E03A1
:100110000C94AA010C9440030C9406030C94250340
:100120000C9437030C943B030C946E010C94120353
:100130000C940A030C9404040C9400040C94BE0167
:100140000C9491020C941F030C9444020C942D0304
:100150000C943303000020002300260029002C000B
:100160002F00320000010000030106010901000018
:100170002100240027002A002D0030003300010157
:100180000000040107010A010000220025002800E8
:100190002B002E003100340002010000050108018F
:1001A0000B010505050507050808080802020202FB
:1001B0000A0A080804040404010101010101010103
:1001C0000303030303030303040707070C0C0C0CCE
:1001D0000C0C0C0C020202020606060606060606B7
:1001E0000B0B0B0B0B0B0B0B010210202008081044
:1001F0002040102040800201020108040201010297
:10020000040810204080804020100804020180046F
:1002100002018040201008040201080402010102CA
:1002200004081020408001020408102040800000D3
:100230000A0B02090C0D0E08070304010000000060
:1002400000000000000000000000000000000000AE
:10025000000000000000000000001211100000006B
:10026000000000000000000000000000000000008E
:1002700000000000B20411241FBECFEFD1E2DEBFA8
:10028000CDBF00E00CBF23E0A6E4B2E001C01D92A8
:10029000AB35B207E1F712E0A0E0B2E0E6EEFDE038
:1002A00000E00BBF02C007900D92A634B107D9F74A
:1002B00011E0CBE3D1E000E006C021970109802FD7
:1002C000FE010E94E906CA33D10780E00807A9F7BA
:1002D0000E943F050C94F1060C940000AF92BF926F
:1002E000CF92DF92EF92FF920F931F93CF93DF9302
:1002F0006C017B018B01040F151FEB015E01AE1831
:10030000BF08C017D10759F06991D601ED91FC9152
:100310000190F081E02DC6011995892B79F7C5016F
:10032000DF91CF911F910F91FF90EF90DF90CF90D1
:10033000BF90AF900895FC01538D448D252F30E080
:10034000842F90E0821B930B541710F0CF960895E2
:1003500001970895FC01918D828D981761F0A28D0F
:10036000AE0FBF2FB11D5D968C91928D9F5F9F73D5
:10037000928F90E008958FEF9FEF0895FC01918D8B
:10038000828D981731F0828DE80FF11D858D90E0F8
:1003900008958FEF9FEF08952FB7F89480914B0247
:1003A00090914C02A0914D02B0914E022FBF8093CC
:1003B000570290935802A0935902B0935A028FE4C7
:1003C00092E00E94BE0197FF26C02FB7F89480915B
:1003D0004B0290914C02A0914D02B0914E022FBF62
:1003E00040915702509158026091590270915A02FF
:1003F000841B950BA60BB70B4091530250915402EE
:10040000609155027091560284179507A607B707A9
:10041000B0F28FEF9FEF0895FC01918D228D892F0F
:1004200090E0805C9F4F821B91098F7399270895FC
:100430008FE492E00E940C0221E0892B09F420E075
:10044000822F0895FC01A48DA80FB92FB11DA35AC6
:10045000BF4F2C91848D90E001968F739927848FE4
:10046000A689B7892C93A089B1898C918370806407
:100470008C93938D848D981306C00288F389E02DA8
:1004800080818F7D80830895EF92FF920F931F9359
:10049000CF93DF93EC0181E0888F9B8D8C8D981337
:1004A0001AC0E889F989808185FF15C09FB7F89443
:1004B000EE89FF896083E889F9898081837080648F
:1004C00080839FBF81E090E0DF91CF911F910F91DA
:1004D000FF90EF900895F62E0B8D10E00F5F1F4FE9
:1004E0000F731127E02E8C8D8E110CC00FB607FCF8
:1004F000FACFE889F989808185FFF5CFCE010E9486
:100500002202F1CFEB8DEC0FFD2FF11DE35AFF4FCF
:10051000F0829FB7F8940B8FEA89FB898081806213
:10052000CFCFCF93DF93EC01888D8823B9F0AA89D0
:10053000BB89E889F9898C9185FD03C0808186FD9E
:100540000DC00FB607FCF7CF8C9185FFF2CF8081ED
:1005500085FFEDCFCE010E942202E9CFDF91CF913E
:10056000089580E090E0892B29F00E941802811103
:100570000E94000080E090E0892B49F080E090E04C
:10058000892B29F00E94000081110E94000080E068
:1005900090E0892B49F080E090E0892B29F00E94BF
:1005A000000081110E94000080E090E0892B49F05A
:1005B00080E090E0892B29F00E94000081110C94CA
:1005C000000008958150823108F05AC0E82FF0E011
:1005D0008827E251FD4F8F4F0C94E9060E0312035A
:1005E000000306030A03400315031B031F0325032F
:1005F00029032D033303370340033B034103450322
:10060000809180008F778093800008958091800092
:100610008F7DF9CF80918000877FF5CF84B58F776C
:1006200084BD089584B58F7DFBCF8091B0008F7716
:100630008093B00008958091B0008F7DF9CF8091B4
:1006400090008F77809390000895809190008F7D27
:10065000F9CF80919000877FF5CF8091A0008F77B0
:100660008093A00008958091A0008F7DF9CF8091A4
:10067000A000877FF5CF809120018F7780932001A4
:100680000895809120018F7DF9CF80912001877F8F
:10069000F5CF1F93CF93DF93282F30E0F901E25D70
:1006A000FD4F8491F901E851FE4FD491F901EE55C7
:1006B000FE4FC491CC23A9F0162F81110E94E202B3
:1006C000EC2FF0E0EE0FFF1FE857FE4FA591B4911D
:1006D0008FB7F894EC91111108C0D095DE23DC930C
:1006E0008FBFDF91CF911F910895DE2BF8CFCF936D
:1006F000DF9390E0FC01E851FE4F24918E559E4F10
:10070000FC0184918823C9F090E0880F991FFC01B7
:10071000E259FE4FA591B491FC01E857FE4FC591F7
:10072000D49161110DC09FB7F8948C9120958223CC
:100730008C938881282328839FBFDF91CF910895D0
:10074000623051F49FB7F8943C91822F80958323B7
:100750008C93E8812E2BEFCF8FB7F894EC912E2B52
:100760002C938FBFEACF3FB7F894809147029091C6
:100770004802A0914902B0914A0226B5A89B05C043
:100780002F3F19F00196A11DB11D3FBFBA2FA92F10
:10079000982F8827BC01CD01620F711D811D911D0D
:1007A00042E0660F771F881F991F4A95D1F7089579
:1007B000CF93DF9370E0FB01E25DFD4F8491FB017D
:1007C000E851FE4FD4916E557E4FFB01C491CC236E
:1007D000A1F081110E94E202EC2FF0E0EE0FFF1F6A
:1007E000EC5AFE4FA591B491EC91ED2381E090E09D
:1007F00009F480E0DF91CF91089580E090E0FACF96
:10080000862F642F0C944903862F642F0C94770352
:100810001F920F920FB60F9211240BB60F922F93C7
:100820003F934F935F936F937F938F939F93AF9378
:10083000BF93EF93FF938FE492E00E942202FF9117
:10084000EF91BF91AF919F918F917F916F915F9148
:100850004F913F912F910F900BBE0F900FBE0F90B5
:100860001F9018951F920F920FB60F9211240BB67E
:100870000F922F938F939F93EF93FF93E0915F02DB
:10088000F09160028081E0916502F091660282FD44
:100890001DC09081809168028F5F8F7320916902E3
:1008A000821741F0E0916802F0E0E15BFD4F958F27
:1008B00080936802FF91EF919F918F912F910F90FC
:1008C0000BBE0F900FBE0F901F9018958081F2CF36
:1008D0001F920F920FB60F9211242F933F938F9375
:1008E0009F93AF93BF9380914B0290914C02A09144
:1008F0004D02B0914E023091460223E0230F2D3776
:1009000058F50196A11DB11D2093460280934B021C
:1009100090934C02A0934D02B0934E0280914702F7
:1009200090914802A0914902B0914A020196A11DFE
:10093000B11D8093470290934802A0934902B0935F
:100940004A02BF91AF919F918F913F912F910F904C
:100950000FBE0F901F90189526E8230F0296A11D39
:10096000B11DD2CF109252021092510288EE93E044
:10097000A0E0B0E08093530290935402A0935502FC
:10098000B09356028CE192E09093500280934F0214
:1009900085EC90E090935C0280935B0284EC90E0A5
:1009A00090935E0280935D0280EC90E090936002F1
:1009B00080935F0281EC90E09093620280936102E9
:1009C00082EC90E0909364028093630286EC90E066
:1009D00090936602809365021092680210926902F9
:1009E00010926A0210926B021092EE021092F202C2
:1009F0001092F1021092F3028EE292E09093ED02D7
:100A00008093EC02E8E0F3E01082148213821582F6
:100A1000369683E0E434F807B9F784E092E09093E7
:100A20004F0380934E0380E092E0909351038093B4
:100A3000500384E0809352038093530388E092E054
:100A400090934D0380934C038AE090E0909355037C
:100A50008093540384EF91E090935703809356035F
:100A600010925A03109259031092480310924903AE
:100A700010924A0310924B031092580308957894F1
:100A800084B5826084BD84B5816084BD85B5826093
:100A900085BD85B5816085BD80916E008160809344
:100AA0006E001092810080918100826080938100AD
:100AB00080918100816080938100809180008160BD
:100AC000809380008091B10084608093B100809118
:100AD000B00081608093B00080919100826080932B
:100AE00091008091910081608093910080919000AD
:100AF0008160809390008091A10082608093A1002A
:100B00008091A10081608093A1008091A00081600C
:100B10008093A000809121018260809321018091C7
:100B20002101816080932101809120018160809367
:100B3000200180917A00846080937A0080917A000D
:100B4000826080937A0080917A00816080937A003D
:100B500080917A00806880937A001092C100E091C1
:100B60005F02F091600282E08083E0915B02F0918D
:100B70005C021082E0915D02F0915E028FEC808356
:100B800010926702E0916302F091640286E0808334
:100B9000E0916102F0916202808180618083E09146
:100BA0006102F0916202808188608083E09161023D
:100BB000F0916202808180688083E0916102F0910F
:100BC000620280818F7D808361E08AE00E947703EA
:100BD00061E089E00E94770361E088E00E9477038A
:100BE00061E087E00E94770361E086E00E9477037E
:100BF00061E085E00E94770361E084E00E94770372
:100C000061E083E00E94770361E082E00E94770365
:100C10001AE08FE492E00E940C02181619060CF0FC
:100C2000BBC00E94CC01FC0197FDA2C08D32910592
:100C300021F0C0970A9708F094C0C12CD12C7601FE
:100C4000C0E0E130F105D9F0ED32F10509F48EC0D4
:100C5000CF01C0970A9798F4AAE0B0E0A7019601E7
:100C60000E94CF066F01FF0FEE08FF08C60ED71EC9
:100C7000E81EF91E20E3C21AD108E108F1088FE44A
:100C800092E00E94AA010E94CC01FC01C0970A9741
:100C9000C0F2E130F105A9F2CC2341F0F094E094E8
:100CA000D094C094C11CD11CE11CF11C8AE0C81670
:100CB000D10408F061C060E08AE00E94490360E06E
:100CC00089E00E94490360E088E00E94490360E0F7
:100CD00087E00E94490360E086E00E94490360E0EB
:100CE00085E00E94490360E084E00E94490360E0DF
:100CF00083E00E94490360E082E00E944903D0E063
:100D0000C0E0CC15DD050CF047C061E0812F8C1BE5
:100D10000E9449030E94B3032B013C0184EF882EFB
:100D200099249394A12CB12C0E94B30364197509E2
:100D300086099709683E734081059105A8F321E073
:100D4000821A9108A108B10888EE480E83E0581E67
:100D5000611C711C81149104A104B10429F721962E
:100D6000D0CF8FE492E00E94AA015BCFC1E087CF91
:100D7000C12CD12C76019ACF4EE050E064E372E0B2
:100D80008FE492E00E946E0142E050E063E472E082
:100D90008FE492E00E946E010E94B1023ACF0E945D
:100DA000DA06A59F900DB49F900DA49F800D911D14
:100DB00011240895A29FB001B39FC001A39F700D9D
:100DC000811D1124911DB29F700D811D1124911D53
:100DD0000895EE0FFF1F881F8BBF0790F691E02D3F
:060DE0001994F894FFCF06
:100DE6001D1B19171F212325373839253435362A77
:100DF6003132332D6F303D2B0000000044026E016E
:100E06009B0191020C02AA01BE010000000004042D
:100E16000004D803696E76616C6964206E756D6234
:060E26006572000D0A00D8
:00000001FF
