:100000000C9428010C9459010C9459010C94590139
:100010000C9459010C9459010C9459010C945901F8
:100020000C9459010C9459010C9459010C945901E8
:100030000C9459010C9459010C9459010C945901D8
:100040000C9459010C942E050C9459010C945901EF
:100050000C9459010C9459010C9459010C945A04B4
:100060000C9459010C9424040C94FA030C94590137
:100070000C9459010C9459010C9459010C94590198
:100080000C9400050C9459010C9459010C945901DD
:100090000C9459010C9459010C9459010C94590178
:1000A0000C9459010C9459010C94D2040C945901EC
:1000B0000C9459010C9459010C9459010C94A4040A
:1000C0000C9459010C9459010C9459010C94590148
:1000D0000C9459010C9459010C9459010C94590138
:1000E0000C9459010C94E2020C94BF020C94EB02A4
:1000F0000C945C050C945B010C94D6020C940703E1
:100100000C94F1010C94AB010C94DA020C94FD02F6
:100110000C94EF020C94F5020C94E5020C94DE02B0
:100120000C94B9010C9403030C94C4020C943E0289
:100130000C9488010C9415030C9411030C940B037C
:100140000C9497010C94F90200000A0B02090C0DA3
:100150000E0807030401000000000000000000007A
:10016000000000000000000000000000000000008F
:10017000000000001211100000000000000000004C
:10018000000000000000000000000000000000006F
:100190002200250028002B002E003100340002012F
:1001A0000000050108010B010000210024002700C8
:1001B0002A002D0030003300010100000401070176
:1001C0000A010505050507050808080802020202DC
:1001D0000A0A0808040404040101010101010101E3
:1001E0000303030303030303040707070C0C0C0CAE
:1001F0000C0C0C0C02020202060606060606060697
:100200000B0B0B0B0B0B0B0B010210202008081023
:100210002040102040800201020108040201010276
:10022000040810204080804020100804020180044F
:1002300002018040201008040201080402010102AA
:1002400004081020408001020408102040805C0552
:1002500011241FBECFEFD1E2DEBFCDBF00E00CBF47
:1002600012E0A0E0B2E0ECE2F1E100E00BBF02C07E
:1002700007900D92A631B107D9F723E0A6E1B2E0CD
:1002800001C01D92A435B207E1F711E0C8E2D1E048
:1002900000E006C021970109802FFE010E94850819
:1002A000C732D10780E00807A9F70E94B9050C946E
:1002B00094080C940000AF92BF92CF92DF92EF921D
:1002C000FF920F931F93CF93DF936C017B018B0100
:1002D000040F151FEB015E01AE18BF08C017D10750
:1002E00059F06991D601ED91FC910190F081E02DDA
:1002F000C6011995892B79F7C501DF91CF911F911F
:100300000F91FF90EF90DF90CF90BF90AF90089546
:10031000FC01538D448D252F30E0842F90E0821B0B
:10032000930B541710F0CF96089501970895FC0190
:10033000918D828D981761F0A28DAE0FBF2FB11DE8
:100340005D968C91928D9F5F9F73928F90E0089540
:100350008FEF9FEF0895FC01918D828D981731F0FA
:10036000828DE80FF11D858D90E008958FEF9FEF4E
:100370000895FC01918D228D892F90E0805C9F4F24
:10038000821B91098F739927089583E292E00E945E
:10039000B90121E0892B09F420E0822F0895FC01A6
:1003A000A48DA80FB92FB11DA35ABF4F2C91848DD6
:1003B00090E001968F739927848FA689B7892C9333
:1003C000A089B1898C91837080648C93938D848D86
:1003D000981306C00288F389E02D80818F7D808389
:1003E0000895EF92FF920F931F93CF93DF93EC0149
:1003F00081E0888F9B8D8C8D98131AC0E889F989CC
:10040000808185FF15C09FB7F894EE89FF896083CE
:10041000E889F98980818370806480839FBF81E04F
:1004200090E0DF91CF911F910F91FF90EF90089591
:10043000F62E0B8D10E00F5F1F4F0F731127E02E6C
:100440008C8D8E110CC00FB607FCFACFE889F989A4
:10045000808185FFF5CFCE010E94CF01F1CFEB8DDA
:10046000EC0FFD2FF11DE35AFF4FF0829FB7F89478
:100470000B8FEA89FB8980818062CFCFCF93DF9396
:10048000EC01888D8823B9F0AA89BB89E889F989AC
:100490008C9185FD03C0808186FD0DC00FB607FCE1
:1004A000F7CF8C9185FFF2CF808185FFEDCFCE0114
:1004B0000E94CF01E9CFDF91CF91089580E090E0D5
:1004C000892B29F00E94C50181110E94000080E063
:1004D00090E0892B49F080E090E0892B29F00E9480
:1004E000000081110E94000080E090E0892B49F01B
:1004F00080E090E0892B29F00E94000081110E9489
:10050000000080E090E0892B49F080E090E0892BAA
:1005100029F00E94000081110C9400000895282FFA
:1005200030E0F901E85BFE4F9491F901E85FFD4F7F
:1005300044912E533E4FF9012491222309F435C0F2
:10054000992311F191509231F8F4E92FF0E08827C6
:10055000E355FD4F8F4F0C948508DE02E202BF0287
:10056000D602DA02C402E502EB02EF02F502F9025A
:10057000FD0203030703C4020B031103150380915B
:1005800080008F7780938000E22FF0E0EE0FFF1F56
:10059000E257FE4FA591B4918FB7F894EC91611199
:1005A00048C040954E234C938FBF089580918000A2
:1005B0008F7DE8CF80918000877FE4CF84B58F77EF
:1005C00084BDE2CF84B58F7DFBCF8091B0008F7763
:1005D0008093B000D9CF8091B0008F7DF9CF80910A
:1005E00090008F7780939000CFCF809190008F7D87
:1005F000F9CF80919000877FF5CF8091A0008F7711
:100600008093A000C1CF8091A0008F7DF9CF809111
:10061000A000877FF5CF809120018F778093200104
:10062000B3CF809120018F7DF9CF80912001877F0A
:10063000F5CF4E2BB8CF3FB7F89480911F02909121
:100640002002A0912102B091220226B5A89B05C0EC
:100650002F3F19F00196A11DB11D3FBFBA2FA92F41
:10066000982F8827BC01CD01620F711D811D911D3E
:1006700042E0660F771F881F991F4A95D1F70895AA
:10068000AF92BF92CF92DF92EF92FF920F931F93A0
:10069000CF93DF936B017A01EC01CA5EDD4F2881B5
:1006A0003CE0389F8001399F100D1124A090500329
:1006B000B12C27FF1FC0FB011182108288818F5F40
:1006C000888388819801280F311D87FD3A95F601AE
:1006D0002A153B051CF488818C30C4F180819181FE
:1006E000049680349C4908F473C0F601808191819E
:1006F000049670C088819801280F311D87FD3A95B6
:100700002A153B05DCF68881A801480F511D87FD9D
:100710005A95FA01EE0FFF1FE40FF51FE054FD4F4D
:10072000808186FFCBCF8881F801E80FF11D87FD1E
:10073000FA95CF01EE0FFF1FE80FF91FE054FD4FB0
:10074000808160E08F730E948F02B8CF8081918199
:100750002881A801420F511D27FD5A959A01FA01DF
:10076000EE0FFF1FE20FF31FE054FD4F2181328196
:10077000820F931FF7019183808388819801280F4E
:10078000311D87FD3A95F901EE0FFF1FE20FF31FB0
:10079000E054FD4F808186FF22C08881080F111D23
:1007A00087FD1A95F801EE0FFF1FE00FF11FE054CF
:1007B000FD4F808161E08F73DF91CF911F910F9189
:1007C000FF90EF90DF90CF90BF90AF900C948F028E
:1007D00080E49CE9F701918380838FEF8883DF9128
:1007E000CF911F910F91FF90EF90DF90CF90BF902E
:1007F000AF9008951F920F920FB60F9211240BB66F
:100800000F922F933F934F935F936F937F938F93A9
:100810009F93AF93BF93EF93FF9383E292E00E9485
:10082000CF01FF91EF91BF91AF919F918F917F91F8
:100830006F915F914F913F912F910F900BBE0F9051
:100840000FBE0F901F9018951F920F920FB60F9228
:1008500011240BB60F922F938F939F93EF93FF93D7
:10086000E0913302F09134028081E0913902F091FD
:100870003A0282FD1DC0908180913C028F5F8F7390
:1008800020913D02821741F0E0913C02F0E0ED5DE5
:10089000FD4F958F80933C02FF91EF919F918F9137
:1008A0002F910F900BBE0F900FBE0F901F901895B9
:1008B0008081F2CF1F920F920FB60F9211242F93C7
:1008C0003F938F939F93AF93BF9380911B0290911F
:1008D0001C02A0911D02B0911E0230911A0223E069
:1008E000230F2D3758F50196A11DB11D20931A0233
:1008F00080931B0290931C02A0931D02B0931E02D2
:1009000080911F0290912002A0912102B0912202B9
:100910000196A11DB11D80931F0290932002A09308
:100920002102B0932202BF91AF919F918F913F918D
:100930002F910F900FBE0F901F90189526E8230F50
:100940000296A11DB11DD2CF1F920F920FB60F922A
:1009500011240BB60F922F933F934F935F936F9396
:100960007F938F939F93AF93BF93EF93FF9348E24F
:1009700051E064E271E090E080E00E944003FF916A
:10098000EF91BF91AF919F918F917F916F915F9107
:100990004F913F912F910F900BBE0F900FBE0F9074
:1009A0001F9018951F920F920FB60F9211240BB63D
:1009B0000F922F933F934F935F936F937F938F93F8
:1009C0009F93AF93BF93EF93FF9348EA50E064EA9D
:1009D00070E083E090E00E944003FF91EF91BF91AF
:1009E000AF919F918F917F916F915F914F913F91C7
:1009F0002F910F900BBE0F900FBE0F901F90189568
:100A00001F920F920FB60F9211240BB60F922F93D5
:100A10003F934F935F936F937F938F939F93AF9386
:100A2000BF93EF93FF9348E950E064E970E082E000
:100A300090E00E944003FF91EF91BF91AF919F9191
:100A40008F917F916F915F914F913F912F910F9077
:100A50000BBE0F900FBE0F901F9018951F920F9214
:100A60000FB60F9211240BB60F922F933F934F9313
:100A70005F936F937F938F939F93AF93BF93EF9306
:100A8000FF9348E850E064E870E081E090E00E9465
:100A90004003FF91EF91BF91AF919F918F917F9113
:100AA0006F915F914F913F912F910F900BBE0F90DF
:100AB0000FBE0F901F9018951092260210922502DB
:100AC00088EE93E0A0E0B0E08093270290932802A4
:100AD000A0932902B0932A0284E092E0909324022A
:100AE0008093230285EC90E09093300280932F0254
:100AF00084EC90E0909332028093310280EC90E09D
:100B0000909334028093330281EC90E0909336020C
:100B10008093350282EC90E0909338028093370204
:100B200086EC90E090933A028093390210923C0256
:100B300010923D0210923E0210923F0280915003AB
:100B4000803398F491E0980F909350038093510371
:100B500090E0FC01EE0FFF1FE80FF91FE054FD4F7E
:100B600088EB9BE09283818308958FEF80935103FC
:100B70000895CF93DF93CDB7DEB7A1970FB6F89462
:100B8000DEBF0FBECDBF789484B5826084BD84B5CE
:100B9000816084BD85B5826085BD85B5816085BD78
:100BA00080916E00816080936E0010928100809130
:100BB00081008260809381008091810081608093B8
:100BC0008100809180008160809380008091B100DD
:100BD00084608093B1008091B00081608093B00008
:100BE000809191008260809391008091910081605A
:100BF000809391008091900081608093900080911B
:100C0000A10082608093A1008091A1008160809307
:100C1000A1008091A00081608093A00080912101BB
:100C20008260809321018091210181608093210164
:100C30008091200181608093200180917A008460FE
:100C400080937A0080917A00826080937A0080910C
:100C50007A00816080937A0080917A008068809326
:100C60007A001092C10080915103803308F069C06E
:100C7000E1E1F2E02491EBECF1E08491882399F03A
:100C800090E0880F991FFC01E855FE4FA591B491A3
:100C9000FC01E257FE4F859194918FB7F894EC9147
:100CA000E22BEC938FBF80915103282F30E0F901A4
:100CB000EE0FFF1FE20FF31FE054FD4F9081907C79
:100CC0009960908310925203109253032CE0622F8C
:100CD0000E947908829FB001112430E020E0AB012E
:100CE000420F531FFA01EE0FFF1FE40FF51FE054F0
:100CF000FD4F908196FD17C02F5F3F4F2C3031057F
:100D000071F7813009F050C11092800082E0809329
:100D100081001092850010928400B19A80916F003A
:100D2000826080936F00E09151038E2F90E0FC0170
:100D3000EE0FFF1FE80FF91FE054FD4F8081806424
:100D40008083E0913302F091340282E08083E0916D
:100D50002F02F09130021082E0913102F0913202C4
:100D60008FEC808310923B02E0913702F0913802C1
:100D700086E08083E0913502F091360280818061C7
:100D80008083E0913502F091360280818860808313
:100D9000E0913502F0913602808180688083E09195
:100DA0003502F091360280818F7D8083A8E82A2E5B
:100DB000312CBAE08B2E912CA12CB12C80917B0090
:100DC000877F80937B0020E420937C0080917A00D1
:100DD000806480937A0080917A0086FDFCCF8091B8
:100DE0007800A0917900BA2FA82F24EB30E00E9460
:100DF0008D082FEF33E040E050E00E9416086901B3
:100E00007A01290140E2C41642E0D406CCF5809173
:100E100052032101481A510887FD5394440C551C74
:100E2000440C551C052C000C660877088091530370
:100E300028E532E0281B310987FD3395220F331F47
:100E4000220F331F032E000C440B550B24193509B8
:100E500046095709D601A53BB10514F0A4EBB0E053
:100E6000B7FF02C0B0E0A0E00E94400824EB30E0F1
:100E700040E050E00E941608420E531E641E751E8C
:100E800020915103203380F580915203F101E81B3A
:100E9000F10987FDF395CF01880F991F880F991FDE
:100EA000481659068CF08091530348E552E0481BE0
:100EB000510987FD5395CA01880F991F880F991F03
:100EC000481659060CF4C2010297880F991F4FB7B4
:100ED000F89430E0F901EE0FFF1FE20FF31FE0542A
:100EE000FD4F928381834FBFF7FE8AC06DE283E29C
:100EF00092E00E94F10122273327A9012C193D0914
:100F00004E095F0919A28E010F5D1F4FCA01B90179
:100F1000A50194010E944808605DF80162938F0169
:100F2000211531054105510589F70115110561F0BC
:100F300001900020E9F73197AF01401B510BB80138
:100F400083E292E00E945B0142E050E062E172E0E5
:100F500083E292E00E945B010E941B032B013C0193
:100F600088EEC82E83E0D82EE12CF12C0E941B03C2
:100F70006419750986099709683E734081059105D2
:100F8000A8F3F1E0CF1AD108E108F10828EE420EEB
:100F900023E0521E611C711CC114D104E104F10450
:100FA00029F70E945E020ACF823061F4109290000D
:100FB00080939100109295001092940088BB8093CA
:100FC0007100B1CE833069F41092A00082E080936A
:100FD000A1001092A5001092A40089BB809372001A
:100FE000A2CE8111A0CE1092200182E08093210137
:100FF00010922501109224018ABB8093730093CE36
:10100000A701960119A28E010F5D1F4FCA01B901F8
:10101000A50194010E944808605DF80162938F0168
:10102000211531054105510589F77FCF052E97FB25
:101030001EF400940E942D0857FD07D00E94480816
:1010400007FC03D04EF40C942D0850954095309534
:1010500021953F4F4F4F5F4F089590958095709524
:1010600061957F4F8F4F9F4F08950E946A08A59FFB
:10107000900DB49F900DA49F800D911D1124089593
:10108000B7FF0C9435080E943508821B930B089516
:10109000A1E21A2EAA1BBB1BFD010DC0AA1FBB1F7C
:1010A000EE1FFF1FA217B307E407F50720F0A21BEE
:1010B000B30BE40BF50B661F771F881F991F1A945B
:1010C00069F760957095809590959B01AC01BD0185
:1010D000CF010895A29FB001B39FC001A39F700DDF
:1010E000811D1124911DB29F700D811D1124911D30
:1010F0000895991B79E004C0991F961708F0961B74
:10110000881F7A95C9F780950895EE0FFF1F881FF5
:101110008BBF0790F691E02D19940E946A08B7FFE3
:0C1120000895821B930B0895F894FFCFF4
:10112C0000000000F1015B0188013E02B90197014A
:06113C00AB010D0A0000EA
:00000001FF
