:100000000C9428010C9459010C9459010C94590139
:100010000C9459010C9459010C9459010C945901F8
:100020000C9459010C9459010C9459010C945901E8
:100030000C9459010C9459010C9459010C945901D8
:100040000C9459010C9459010C9459010C945901C8
:100050000C9459010C9459010C9459010C94F1031E
:100060000C9459010C94BB030C9491030C9459010A
:100070000C9459010C9459010C9459010C94590198
:100080000C9459010C9459010C9459010C94590188
:100090000C9459010C9459010C9459010C94590178
:1000A0000C9459010C9459010C9459010C94590168
:1000B0000C9459010C9459010C9459010C94590158
:1000C0000C9459010C9459010C9459010C94590148
:1000D0000C9459010C9459010C9459010C94590138
:1000E0000C9459010C941C030C9401030C9404030C
:1000F0000C9430030C94DE020C94B6010C9414039F
:100100000C94E3020C940A030C942A030C94340319
:100110000C9418030C94CA010C940E030C9426033F
:100120000C94FD020C947A010C94F9020C94F502E3
:100130000C94A7010C9410020C945D020C94D8014D
:100140000C9422030C948B0500000A0B02090C0D81
:100150000E0807030401000000000000000000007A
:10016000000000000000000000000000000000008F
:10017000000000001211100000000000000000004C
:10018000000000000000000000000000000000006F
:100190002200250028002B002E003100340002012F
:1001A0000000050108010B010000210024002700C8
:1001B0002A002D0030003300010100000401070176
:1001C0000A010505050507050808080802020202DC
:1001D0000A0A0808040404040101010101010101E3
:1001E0000303030303030303040707070C0C0C0CAE
:1001F0000C0C0C0C02020202060606060606060697
:100200000B0B0B0B0B0B0B0B010210202008081023
:100210002040102040800201020108040201010276
:10022000040810204080804020100804020180044F
:1002300002018040201008040201080402010102AA
:1002400004081020408001020408102040808B0523
:1002500011241FBECFEFD1E2DEBFCDBF00E00CBF47
:1002600012E0A0E0B2E0E4E8FBE000E00BBF02C077
:1002700007900D92A633B107D9F722E0A6E3B2E0CA
:1002800001C01D92AD3DB207E1F711E0C8E2D1E037
:1002900000E006C021970109802FFE010E94B805E9
:1002A000C732D10780E00807A9F70E943B040C94ED
:1002B000C0050C94000090E0FC01E85FFD4F249124
:1002C0008E539E4FFC018491882399F090E0880F13
:1002D000991FFC01E855FE4FA591B491FC01E2572E
:1002E000FE4F859194918FB7F894EC91E22BEC93AB
:1002F0008FBF0895AF92BF92CF92DF92EF92FF929D
:100300000F931F93CF93DF936C017B018B01040F3D
:10031000151FEB015E01AE18BF08C017D10759F0D9
:100320006991D601ED91FC910190F081E02DC6011B
:100330001995892B79F7C501DF91CF911F910F9105
:10034000FF90EF90DF90CF90BF90AF900895FC01A9
:10035000538D448D252F30E0842F90E0821B930B2A
:10036000541710F0CF96089501970895FC01918DD0
:10037000828D981761F0A28DAE0FBF2FB11D5D96D3
:100380008C91928D9F5F9F73928F90E008958FEF75
:100390009FEF0895FC01918D828D981731F0828D29
:1003A000E80FF11D858D90E008958FEF9FEF089580
:1003B000FC01918D228D892F90E0805C9F4F821BE4
:1003C00091098F739927089580E492E00E94D801E3
:1003D00021E0892B09F420E0822F0895FC01A48DEF
:1003E000A80FB92FB11DA35ABF4F2C91848D90E057
:1003F00001968F739927848FA689B7892C93A0893A
:10040000B1898C91837080648C93938D848D9813C3
:1004100006C00288F389E02D80818F7D8083089556
:10042000EF92FF920F931F93CF93DF93EC0181E044
:10043000888F9B8D8C8D98131AC0E889F9898081EB
:1004400085FF15C09FB7F894EE89FF896083E8891E
:10045000F98980818370806480839FBF81E090E010
:10046000DF91CF911F910F91FF90EF900895F62E9D
:100470000B8D10E00F5F1F4F0F731127E02E8C8D37
:100480008E110CC00FB607FCFACFE889F98980817C
:1004900085FFF5CFCE010E94EE01F1CFEB8DEC0F81
:1004A000FD2FF11DE35AFF4FF0829FB7F8940B8F99
:1004B000EA89FB8980818062CFCFCF93DF93EC0103
:1004C000888D8823B9F0AA89BB89E889F9898C913C
:1004D00085FD03C0808186FD0DC00FB607FCF7CFF8
:1004E0008C9185FFF2CF808185FFEDCFCE010E94F8
:1004F000EE01E9CFDF91CF91089580E090E0892B64
:1005000029F00E94E40181110E94000080E090E047
:10051000892B49F080E090E0892B29F00E940000AF
:1005200081110E94000080E090E0892B49F080E07A
:1005300090E0892B29F00E94000081110E940000A8
:1005400080E090E0892B49F080E090E0892B29F051
:100550000E94000081110C9400000895282F30E0C3
:10056000F901E85BFE4F9491F901E85FFD4F44917A
:100570002E533E4FF9012491222309F435C09923CB
:1005800011F191509231F8F4E92FF0E08827E4530B
:10059000FD4F8F4F0C94B805FD020103DE02F502FA
:1005A000F902E30204030A030E03140318031C03F5
:1005B00022032603E3022A033003340380918000E0
:1005C0008F7780938000E22FF0E0EE0FFF1FE2575D
:1005D000FE4FA591B4918FB7F894EC91611148C08A
:1005E00040954E234C938FBF0895809180008F7D5E
:1005F000E8CF80918000877FE4CF84B58F7784BD7A
:10060000E2CF84B58F7DFBCF8091B0008F77809350
:10061000B000D9CF8091B0008F7DF9CF809190004C
:100620008F7780939000CFCF809190008F7DF9CF0E
:1006300080919000877FF5CF8091A0008F77809385
:10064000A000C1CF8091A0008F7DF9CF8091A00044
:10065000877FF5CF809120018F7780932001B3CFE2
:10066000809120018F7DF9CF80912001877FF5CF88
:100670004E2BB8CF3FB7F89480913B0290913C024B
:10068000A0913D02B0913E0226B5A89B05C02F3F28
:1006900019F00196A11DB11D3FBFBA2FA92F982FA8
:1006A0008827BC01CD01620F711D811D911D42E0A3
:1006B000660F771F881F991F4A95D1F708958F926B
:1006C0009F92AF92BF92CF92DF92EF92FF924B0137
:1006D0005C010E943A036B017C010E943A036C1991
:1006E0007D098E099F09683E734081059105A8F335
:1006F00021E0821A9108A108B10888EEC80E83E0B3
:10070000D81EE11CF11C81149104A104B10429F745
:10071000FF90EF90DF90CF90BF90AF909F908F9021
:1007200008951F920F920FB60F9211240BB60F92DD
:100730002F933F934F935F936F937F938F939F93E9
:10074000AF93BF93EF93FF9380E492E00E94EE019A
:10075000FF91EF91BF91AF919F918F917F916F9199
:100760005F914F913F912F910F900BBE0F900FBE55
:100770000F901F9018951F920F920FB60F92112491
:100780000BB60F922F938F939F93EF93FF93E0916C
:100790005002F09151028081E0915602F09157028F
:1007A00082FD1DC09081809159028F5F8F732091CF
:1007B0005A02821741F0E0915902F0E0E05CFD4FEF
:1007C000958F80935902FF91EF919F918F912F9177
:1007D0000F900BBE0F900FBE0F901F901895808149
:1007E000F2CF1F920F920FB60F9211242F933F93C7
:1007F0008F939F93AF93BF9380913702909138026C
:10080000A0913902B0913A023091360223E0230FD1
:100810002D3758F50196A11DB11D20933602809306
:10082000370290933802A0933902B0933A02809134
:100830003B0290913C02A0913D02B0913E02019694
:10084000A11DB11D80933B0290933C02A0933D02F9
:10085000B0933E02BF91AF919F918F913F912F91A5
:100860000F900FBE0F901F90189526E8230F029649
:10087000A11DB11DD2CF789484B5826084BD84B5AA
:10088000816084BD85B5826085BD85B5816085BD8B
:1008900080916E00816080936E0010928100809143
:1008A00081008260809381008091810081608093CB
:1008B0008100809180008160809380008091B100F0
:1008C00084608093B1008091B00081608093B0001B
:1008D000809191008260809391008091910081606D
:1008E000809391008091900081608093900080912E
:1008F000A10082608093A1008091A100816080931B
:10090000A1008091A00081608093A00080912101CE
:100910008260809321018091210181608093210177
:100920008091200181608093200180917A00846011
:1009300080937A0080917A00826080937A0080911F
:100940007A00816080937A0080917A008068809339
:100950007A001092C100E0915002F091510282E0C1
:100960008083E0914C02F0914D021082E0914E02A2
:10097000F0914F028FEC808310925802E091540264
:10098000F091550286E08083E0915202F09153028B
:10099000808180618083E0915202F09153028081D6
:1009A00088608083E0915202F091530280818068D8
:1009B0008083E0915202F091530280818F7D808389
:1009C0004FE050E062E172E080E492E00E947A0140
:1009D00042E050E062E272E080E492E00E947A013C
:1009E0008CE20E945B0161E08CE20E94AE028DE22B
:1009F0000E945B0161E08DE20E94AE02CFB7F894E5
:100A000080913F02811124C0E7EFF1E08491EDE392
:100A1000F2E09491E82FF0E0EE0FFF1FE855FE4F53
:100A2000A591B491EC91E92321F461E085E30E9462
:100A3000AE0285E30E945B018CB580618CBD8CB5F4
:100A400080648CBD84E30E945B0183E30E945B01B0
:100A500080913F028F5F80933F02CFBF60E08CE2C6
:100A60000E94AE026AE070E080E090E00E945F03C6
:100A700005E212E0F801C1918F01CC2391F06C2FB7
:100A800080E492E00E941002CEBD00000DB407FE8B
:100A9000FDCF8EB565E070E080E090E00E945F03DE
:100AA000E9CF61E08CE20E94AE0268EE73E080E084
:100AB00090E00E945F0360E08DE20E94AE026AE077
:100AC00070E080E090E00E945F030DE212E0F80128
:100AD000C1918F01CC2391F06C2F80E492E00E94B1
:100AE0001002CEBD00000DB407FEFDCF8EB565E04F
:100AF00070E080E090E00E945F03E9CF61E08DE26A
:100B00000E94AE0268EE73E080E090E00E945F0316
:100B10000E947D02A3CFE0E4F2E01382128288EE0D
:100B200093E0A0E0B0E084839583A683B78384E05C
:100B300092E09183808385EC90E09587848784ECB4
:100B400090E09787868780EC90E0918B808B81EC9A
:100B500090E0938B828B82EC90E0958B848B86EC7B
:100B600090E0978B868B118E128E138E148E0895C3
:100B7000EE0FFF1F881F8BBF0790F691E02D199491
:040B8000F894FFCF17
:100B84000000000010027A01A7015D02D801B6013D
:100B9400CA015374617274696E67206D6173746500
:100BA40072000D0A004D6F756A616E0D0046617228
:060BB40068616E0D0000F7
:00000001FF
