:100000000C9454010C9485010C9485010C94850189
:100010000C9485010C9485010C9485010C94850148
:100020000C9485010C9485010C9485010C94850138
:100030000C9485010C9485010C9485010C94850128
:100040000C9485010C9485010C9485010C94850118
:100050000C9485010C9485010C9485010C94EA0A9A
:100060000C9485010C94B40A0C948A0A0C948501B2
:100070000C9485010C9485010C9485010C948501E8
:100080000C9485010C9485010C9485010C948501D8
:100090000C9485010C9485010C9485010C94340B0F
:1000A0000C9485010C9485010C9485010C948501B8
:1000B0000C9485010C9485010C9485010C948501A8
:1000C0000C9485010C9485010C9485010C94850198
:1000D0000C9485010C9485010C9485010C94850188
:1000E0000C9485010C94AC010C944C030C94790392
:1000F0000C943E030C9405060C9422030C945B06AE
:100100000C9413020C9414060C94E2010C94420318
:100110000C94EA030C94AD040C9411030C943A0370
:100120000C9404060C9427060C9426030C94AA0144
:100130000C942C030C9448030C94AA030C943403E1
:100140000C9419030C9423080C94AB010C948A06AC
:100150000C944B020C9463110C942E060C94150312
:100160000C940D030C9430030C94580C0C941C0349
:100170000C9405020C9498020C9407030C9447030A
:100180000C94F10100002100240027002A002D001A
:100190003000330001010000040107010A010000E2
:1001A0002200250028002B002E003100340002011F
:1001B0000000050108010B010000200023002600BB
:1001C00029002C002F00320000010000030106016D
:1001D00009010505050507050808080802020202CD
:1001E0000A0A0808040404040101010101010101D3
:1001F0000303030303030303040707070C0C0C0C9E
:100200000C0C0C0C02020202060606060606060686
:100210000B0B0B0B0B0B0B0B010210202008081013
:100220002040102040800201020108040201010266
:10023000040810204080804020100804020180043F
:10024000020180402010080402010804020101029A
:1002500004081020408001020408102040800000A3
:100260000A0B02090C0D0E08070304010000000030
:10027000000000000000000000000000000000007E
:10028000000000000000000000001211100000003B
:10029000000000000000000000000000000000005E
:1002A00000000000580C631111241FBECFEFD1E2F3
:1002B000DEBFCDBF00E00CBF24E0A4EAB2E001C085
:1002C0001D92A83CB207E1F712E0A0E0B2E0E4EC36
:1002D000F8E200E00BBF02C007900D92A43AB1070C
:1002E000D9F711E0C3E5D1E000E006C0219701098C
:1002F000802FFE010E941E12C235D10780E0080740
:10030000A9F70E94530D0C9450140C94000096E031
:10031000899FD0011124A35CBB4F90967C936E9370
:100320005F9791E091969C939197E091AA04F09148
:10033000AB049091A904992339F0309751F08111C1
:1003400008C0809159041994309719F05C968C91EB
:10035000FACF089508950895AF92BF92CF92DF9299
:10036000EF92FF920F931F93CF93DF936C017B016A
:100370008B01040F151FEB015E01AE18BF08C017FB
:10038000D10759F06991D601ED91FC910190F0816E
:10039000E02DC6011995892B79F7C501DF91CF9121
:1003A0001F910F91FF90EF90DF90CF90BF90AF9093
:1003B0000895FC0144815581608171818CEA94E04B
:1003C0000C94AC01FC01538D448D252F30E0842F1B
:1003D00090E0821B930B541710F0CF96089501976D
:1003E0000895FC01918D828D981761F0A28DAE0F5A
:1003F000BF2FB11D5D968C91928D9F5F9F73928FE1
:1004000090E008958FEF9FEF0895FC01918D828D0C
:10041000981731F0828DE80FF11D858D90E00895D9
:100420008FEF9FEF0895FC01918D228D892F90E031
:10043000805C9F4F821B91098F739927089580E7F5
:1004400093E00E94130221E0892B09F420E0822F1F
:100450000895FC01A48DA80FB92FB11DA35ABF4F59
:100460002C91848D90E001968F739927848FA689B3
:10047000B7892C93A089B1898C91837080648C9307
:10048000938D848D981306C00288F389E02D8081B6
:100490008F7D80830895EF92FF920F931F93CF93E8
:1004A000DF93EC0181E0888F9B8D8C8D98131AC0AF
:1004B000E889F989808185FF15C09FB7F894EE8996
:1004C000FF896083E889F9898081837080648083F3
:1004D0009FBF81E090E0DF91CF911F910F91FF903E
:1004E000EF900895F62E0B8D10E00F5F1F4F0F73E6
:1004F0001127E02E8C8D8E110CC00FB607FCFACFA1
:10050000E889F989808185FFF5CFCE010E94290213
:10051000F1CFEB8DEC0FFD2FF11DE35AFF4FF08271
:100520009FB7F8940B8FEA89FB8980818062CFCFD7
:10053000CF93DF93EC01888D8823B9F0AA89BB891A
:10054000E889F9898C9185FD03C0808186FD0DC005
:100550000FB607FCF7CF8C9185FFF2CF808185FF26
:10056000EDCFCE010E942902E9CFDF91CF9108950E
:1005700080E090E0892B29F00E941F0281110E94E7
:10058000000080E090E0892B49F080E090E0892B2A
:1005900029F00E94000081110E94000080E090E09C
:1005A000892B49F080E090E0892B29F00E9400001F
:1005B00081110E94000080E090E0892B49F080E0EA
:1005C00090E0892B29F00E94000081110C9400001A
:1005D00008958150823108F05AC0E82FF0E0882752
:1005E000EB50FD4F8F4F0C941E1215031903070398
:1005F0000D03110347031C03220326032C033003BE
:1006000034033A033E034703420348034C038091FB
:1006100080008F77809380000895809180008F7D87
:10062000F9CF80918000877FF5CF84B58F7784BD27
:10063000089584B58F7DFBCF8091B0008F77809334
:10064000B00008958091B0008F7DF9CF8091900027
:100650008F77809390000895809190008F7DF9CFDF
:1006600080919000877FF5CF8091A0008F77809355
:10067000A00008958091A0008F7DF9CF8091A00007
:10068000877FF5CF809120018F7780932001089597
:10069000809120018F7DF9CF80912001877FF5CF58
:1006A000CF93DF93282F30E0F901E25AFD4F849178
:1006B000F901E85EFD4FD491F901EE52FE4FC4916D
:1006C000CC23A1F081110E94E902EC2FF0E0EE0FA3
:1006D000FF1FE854FE4FA591B491EC91ED2381E00A
:1006E00090E009F480E0DF91CF91089580E090E000
:1006F000FACF862F0C9450031F93CF93DF93282FAC
:1007000030E0F901E25AFD4F8491F901E85EFD4FB6
:10071000D491F901EE52FE4FC491CC23A9F0162FCB
:1007200081110E94E902EC2FF0E0EE0FFF1FE2566C
:10073000FE4FA591B4918FB7F894EC91111108C0B8
:10074000D095DE23DC938FBFDF91CF911F91089569
:10075000DE2BF8CF862F642F0C947C03CF93DF938E
:1007600090E0FC01E85EFD4F24918E529E4FFC010B
:1007700084918823C9F090E0880F991FFC01EC5701
:10078000FE4FA591B491FC01E256FE4FC591D49164
:1007900061110DC09FB7F8948C91209582238C93A2
:1007A0008881282328839FBFDF91CF9108956230ED
:1007B00051F49FB7F8943C91822F809583238C93BA
:1007C000E8812E2BEFCF8FB7F894EC912E2B2C9342
:1007D0008FBFEACF862F642F0C94AE033FB7F894F7
:1007E00080910D0390910E03A0910F03B09110031F
:1007F00026B5A89B05C02F3F19F00196A11DB11D7C
:100800003FBFBA2FA92F982F8827BC01CD01620FB7
:10081000711D811D911D42E0660F771F881F991F72
:100820004A95D1F708958F929F92AF92BF92CF923F
:10083000DF92EF92FF924B015C010E94EE036B018D
:100840007C010E94EE036C197D098E099F09683EA8
:10085000734081059105A8F321E0821A9108A1084F
:10086000B10888EEC80E83E0D81EE11CF11C81148B
:100870009104A104B10429F7FF90EF90DF90CF908D
:10088000BF90AF909F908F9008952FB7F89460918C
:10089000090370910A0380910B0390910C032FBF01
:1008A00008950F931F93CF93DF93C82FD62F86E021
:1008B000C89FF0011124E35CFB4F11A2878D90A12A
:1008C00081309105F1F058F082309105F1F10397F4
:1008D00009F440C0DF91CF911F910F9108956623D5
:1008E000C9F361E070E08C2F0E9487010E944504EB
:1008F0006093950470939604809397049093980462
:10090000E9CF0E944504009195041091960420912E
:10091000970430919804AB01BC01401B510B620B52
:10092000730B8091A7049091A804B0E0A0E0841715
:100930009507A607B70748F462E070E08C2FDF91B7
:10094000CF911F910F910C94870163E070E0D1115A
:10095000C1CFF4CF70E060E0F1CF08952091E502BF
:10096000260F3327331F21323105ECF42091460343
:10097000FC0190E080E0243069F082E00895A091CD
:10098000E5022191AC014B535D4FA40FB52FB11D72
:100990002C930196861798F38091E502680F609377
:1009A000E50280E0089581E008951092460381E019
:1009B000809345031092200361E084E10E947C0350
:1009C00061E085E10E947C03E9EBF0E080818E7FAD
:1009D000808380818D7F808388E48093B80085E464
:1009E0008093BC000895CF93DF9391E09093C4026D
:1009F0008823B9F0C091B800D091BA008091BC00B2
:100A00008A7B8093BC0060E084E10E947C0360E00C
:100A100085E10E947C030E94D504D093BA00C09364
:100A2000B800DF91CF9108958F929F92AF92BF92BD
:100A3000CF92DF92EF92FF920F931F93CF93DF93AA
:100A4000D0916F03D13208F0D7C0182FC0916E0338
:100A50000E94EE036B017C018091460381116BC003
:100A600082E080934603109345038FEF8093440305
:100A700010924303D0934203AEE4B3E0E2E2F3E02A
:100A800080E0D81391C01092210380912103CC0FF4
:100A9000C82BC093210380912003813009F088C0C6
:100AA000109220030E94EE036B017C0180912103D0
:100AB0008093BB008091480390914903A0914A0321
:100AC000B0914B03892B8A2B8B2BA1F00E94EE0354
:100AD000009148031091490320914A0330914B0340
:100AE0006C197D098E099F09061717072807390712
:100AF00008F442C08091BC0083FDD8CF85EC809380
:100B0000BC000E94EE036B017C01809146038230A1
:100B100009F450C0809144038F3F09F46FC0809165
:100B20004403803209F46CC080914403803309F49B
:100B300069C084E026C08091480390914903A09148
:100B40004A03B0914B03892B8A2B8B2B09F484CF5A
:100B50000E94EE038090480390904903A0904A03BE
:100B6000B0904B036C197D098E099F098616970674
:100B7000A806B90608F070CF809147030E94F304DD
:100B800085E010924D0310926F0310924C03DF9199
:100B9000CF911F910F91FF90EF90DF90CF90BF907A
:100BA000AF909F908F9008959D9191938F5F69CFA3
:100BB00085EEA5CF8091480390914903A0914A0307
:100BC000B0914B03892B8A2B8B2B09F49ECF0E946B
:100BD000EE03009148031091490320914A0330919C
:100BE0004B036C197D098E099F0906171707280703
:100BF000390708F08ACFC0CF81E0C3CF80E0C1CFF2
:100C000082E0BFCF83E0BDCF0895E09116038091CD
:100C10001503E81730F4F0E0EC55FD4F808190E0CB
:100C200008958FEF9FEF089590911603809115031B
:100C30002FEF3FEF981748F4E92FF0E0EC55FD4F08
:100C4000208130E09F5F90931603C9010895809141
:100C5000150390911603891B990B0895CF92DF928B
:100C6000EF92FF920F931F93CF93DF937C01CB0101
:100C70008A0120914C03222389F0EB016B01C40E01
:100C8000D51ECC15DD0569F06991D701ED91FC9178
:100C90000190F081E02DC7011995F3CF642F0E94D8
:100CA000AE04C801DF91CF911F910F91FF90EF909B
:100CB000DF90CF900895CF93DF931F92CDB7DEB72B
:100CC000698320914C032223F9F020916F03203295
:100CD00058F021E030E0FC013383228390E080E093
:100CE0000F90DF91CF91089580914D03E82FF0E0B0
:100CF000E25BFC4F998190838F5F80934D038093DB
:100D00006F0381E090E0ECCF61E0CE0101960E949C
:100D1000AE04F7CF90E080E00895CF93C62F91E026
:100D200090934C0390E590936E0310924D031092B4
:100D30006F03682F8DE094E00E945B066C2F8DE0BE
:100D400094E00E945B0681E0CF910C9414050F9310
:100D50001F93CF93DF93D82F60911E0380E00E94F2
:100D60008D0660911C0381E00E948D0600E012E078
:100D7000C2E0F80160810E5F1F4F8C2F0E948D062C
:100D8000CF5FC630B1F76D2F86E00E948D0660916F
:100D90001B0387E0DF91CF911F910F910C948D067B
:100DA000CF93DF93EC0160E08E810E947C0361E0D1
:100DB0008E810E947C0360E08E810E947C038BE820
:100DC00091E00197F1F7DF91CF910895CF92DF92F3
:100DD000EF92FF920F931F93CF93DF936C017C01EF
:100DE00087E0E80EF11CD0E0C0E0062F10E0B8016B
:100DF0000C2E02C0759567950A94E2F76170F701B1
:100E000081917F010E947C032196C430D10579F73E
:100E1000C601DF91CF911F910F91FF90EF90DF906E
:100E2000CF900C94D006CF92DF92EF92FF920F9367
:100E30001F93CF93DF93EC01F62E642F8C810E94D9
:100E40007C038D818F3F19F060E00E947C030F2DA1
:100E500010E08F8584FF25C06E0187E0C80ED11C8D
:100E6000F12CE12CB8010E2C02C0759567950A94FF
:100E7000E2F76170F60181916F010E947C03FFEF40
:100E8000EF1AFF0A88E0E816F10461F7CE01DF915E
:100E9000CF911F910F91FF90EF90DF90CF900C9426
:100EA000D006B80184E0759567958A95E1F7CE0183
:100EB0000E94E6066F2DCE01DF91CF911F910F9119
:100EC000FF90EF90DF90CF900C94E60640E0682F03
:100ED0008CEA94E00C94130781E00E9466078BE390
:100EE0009FE10197F1F70895CF93DF93823029F4C2
:100EF0009091BB0498609093BB048093BF041092C0
:100F0000C00480E48093C10480E18093C20480E542
:100F10008093C30461E08091B0040E94AE0380918D
:100F2000B1048F3F19F061E00E94AE0361E080914F
:100F3000B2040E94AE03CCEAD4E09E012C5A3440A5
:100F40008091BB0484FD0BC084E090E021962817BB
:100F5000390744F461E08E810E94AE03EECF88E051
:100F600090E0F4CF8BE39DE00197F1F760E0809192
:100F7000B0040E947C0360E08091B2040E947C0374
:100F80008091B1048F3F19F060E00E947C03809152
:100F9000BB0484FD34C063E08CEA94E00E94E60662
:100FA000CBE4D6E4CE010197F1F763E08CEA94E05C
:100FB0000E94E6062197F1F763E08CEA94E00E9434
:100FC000E60683E592E00197F1F762E08CEA94E0AF
:100FD0000E94E6068091BB0480620E94660784E05E
:100FE0008093BC048CE00E9466070E946C0782E03C
:100FF0008093BD0486E0DF91CF910C9466078062F8
:101000000E9466078BE496E40197F1F78091BB0498
:1010100080620E94660783E592E00197F1F7809174
:10102000BB0480620E946607D5CF9091BF048917E8
:1010300010F08FEF890FE82FF0E0E455FB4F848923
:1010400080680C94660741E00E94130781E090E0FD
:101050000895FB0101900020E9F73197AF01461B8D
:10106000570BDC01ED91FC910280F381E02D199486
:101070008F929F92AF92BF92FF920F931F93CF9345
:10108000DF93CDB7DEB7A1970FB6F894DEBF0FBEE2
:10109000CDBF91E090934C0390E590936E03109236
:1010A0004D0310926F03682F8DE094E00E945B0661
:1010B00081E00E9414050E94EE034B015C018091C7
:1010C0004603811164C081E0809346038093450309
:1010D0009FEF909344031092430310924203809336
:1010E000210380912103806A809321038091200352
:1010F000813009F0BEC0109220030E94EE034B0124
:101100005C01809121038093BB0080914803909102
:101110004903A0914A03B0914B03892B8A2B8B2B57
:10112000A1F00E94EE030091480310914903209121
:101130004A0330914B03681979098A099B090617FC
:1011400017072807390708F443C08091BC0083FDC6
:10115000D8CF85EC8093BC000E94EE034B015C016C
:1011600080914603813009F486C08091430311E0E9
:10117000811102C010914303A2E2B3E0E4EAF2E07D
:1011800080E0811751F19D9191938F5FFACF80910B
:10119000480390914903A0914A03B0914B03892BD6
:1011A0008A2B8B2B09F48BCF0E94EE03009148030E
:1011B0001091490320914A0330914B036819790932
:1011C0008A099B09061717072807390708F077CF00
:1011D000809147030E94F30410E0109216031093CD
:1011E000150361E070E080E090E00E941304F12CB0
:1011F000112371F18DE094E00E941406F82E282F3F
:1012000030E050E040E019A28E010F5D1F4F8AE0F0
:10121000882E912CA12CB12CCA01B901A5019401F1
:101220000E94FC11605DF80162938F012115310568
:101230004105510589F7309729F0BF0180E793E018
:101240000E94290868E672E080E793E00E9429087E
:101250008F2DA1960FB6F894DEBF0FBECDBFDF91E4
:10126000CF911F910F91FF90BF90AF909F908F9063
:10127000089585EE6FCF8091480390914903A09126
:101280004A03B0914B03892B8A2B8B2B09F468CF2F
:101290000E94EE03009148031091490320914A03F4
:1012A00030914B03681979098A099B0906171707BA
:1012B0002807390708F054CF8BCF0F931F93CF9394
:1012C000DF93EC0188819981009759F02A813B8155
:1012D0002617370730F081E0DF91CF911F910F91F2
:1012E00008958B016F5F7F4F0E945F13009759F045
:1012F000998388831B830A832C813D81232B59F793
:10130000FC011082E8CF80E0E7CFEF92FF920F93CD
:101310001F93CF93DF936115710541F480E0DF9156
:10132000CF911F910F91FF90EF90089541155105B6
:10133000B1F07B01EC010C811D81040F151FB80178
:101340000E945D09882351F3288139818C819D8118
:10135000B701820F931F0E9449141D830C8381E003
:10136000DECFCF93DF93EC0188819981009711F054
:101370000E94D612198218821D821C821B821A8238
:10138000DF91CF910895EF92FF920F931F93CF9328
:10139000DF93EC017B018A01BA010E945D09811192
:1013A0000BC0CE010E94B109CE01DF91CF911F91F8
:1013B0000F91FF90EF9008951D830C83B7018881F2
:1013C00099810E944914F0CFFB0101900020E9F7B8
:1013D0003197AF01461B570B0C94C309FC011182D6
:1013E00010821382128215821482FB010190002068
:1013F000E9F73197AF01461B570B0C94C309FC0169
:1014000080819181009711F00C94D6120895CF93AA
:10141000DF9300D000D0CDB7DEB70E946C0781E02B
:101420000E94150880911C0390911D031A82198255
:101430001C821B821E821D8226E0289FF001299FAC
:10144000F00D1124EB5DFB4F608171816115710519
:1014500031F044815581CE0101960E94C30940912B
:1014600021045091220460911D0470911E04CE014C
:1014700001960E948509811104C0CE0101960E9447
:10148000B109CE0101960E94D901CE0101960E94B8
:10149000FF0926960FB6F894DEBF0FBECDBFDF91D1
:1014A000CF91089585ED8093BC0080914803909181
:1014B0004903A0914A03B0914B030796A11DB11DAA
:1014C00023E0B695A795979587952A95D1F7209112
:1014D000BC0024FD03C010924603089540914803C8
:1014E0005091490360914A0370914B03452B462B61
:1014F000472B69F30097A105B10541F025E32A9533
:10150000F1F700000197A109B109E1CF80914703EC
:101510000C94F3041F920F920FB60F9211240BB686
:101520000F922F933F934F935F936F937F938F937C
:101530009F93AF93BF93EF93FF9380E793E00E9455
:101540002902FF91EF91BF91AF919F918F917F9170
:101550006F915F914F913F912F910F900BBE0F9024
:101560000FBE0F901F9018951F920F920FB60F92FB
:1015700011240BB60F922F938F939F93EF93FF93AA
:10158000E0918003F09181038081E0918603F091E6
:10159000870382FD1DC09081809189038F5F8F73C7
:1015A00020918A03821741F0E0918903F0E0E0592D
:1015B000FC4F958F80938903FF91EF919F918F91BD
:1015C0002F910F900BBE0F900FBE0F901F9018958C
:1015D0008081F2CF1F920F920FB60F9211242F939A
:1015E0003F938F939F93AF93BF9380910903909103
:1015F0000A03A0910B03B0910C033091080323E080
:10160000230F2D3758F50196A11DB11D2093080316
:101610008093090390930A03A0930B03B0930C03E8
:1016200080910D0390910E03A0910F03B0911003D0
:101630000196A11DB11D80930D0390930E03A093FD
:101640000F03B0931003BF91AF919F918F913F9182
:101650002F910F900FBE0F901F90189526E8230F23
:101660000296A11DB11DD2CF1F920F920FB60F92FD
:1016700011240BB60F922F933F934F935F936F9369
:101680007F938F939F93AF93BF93EF93FF9380913B
:10169000B900887F803609F44DC008F040C0883218
:1016A00009F4A9C028F5803109F49DC0C8F4882345
:1016B00009F4FBC0883009F496C0FF91EF91BF9107
:1016C000AF919F918F917F916F915F914F913F91DA
:1016D0002F910F900BBE0F900FBE0F901F9018957B
:1016E000883109F488C0803241F78093440314C0E4
:1016F000803409F49DC040F48033B9F38833E9F6AF
:101700008093440385ECB0C0803509F485C08835EA
:1017100009F496C0883489F60E94520ACECF8839DF
:1017200009F48CC038F5883729F050F4883611F068
:10173000803719F683E0809346031092070357C061
:10174000883809F47BC0803919F0803809F0B5CFAA
:1017500080910703803208F071C0E091070381E0B7
:101760008E0F809307038091BB00F0E0E951FD4F9D
:1017700080833DC0803B39F0E0F4803A09F479C0C1
:10178000883A09F09ACF84E0809346031092E602EB
:101790001092E502E0911303F091140319958091E2
:1017A000E50281110FC081E08093E5021092C5022D
:1017B00009C0803C09F4A6CF883C09F4A3CF883B3C
:1017C00009F07BCFE091E60281E08E0F8093E60284
:1017D000F0E0EB53FD4F80818093BB009091E602D7
:1017E0008091E50229C0809121038093BB0085ECA4
:1017F0008093BC0062CF909143038091420398177D
:1018000058F5E091430381E08E0F80934303F0E0AD
:10181000EE5DFC4F8081E9CFE091430381E08E0FC4
:10182000809343038091BB00F0E0EE5DFC4F80832A
:1018300090914303809142039817C8F285E8D8CF6E
:10184000E091430381E08E0F809343038091BB00BE
:10185000F0E0EE5DFC4F80838091450381115CCF09
:1018600081E08093200384EA8093BC0010924603B9
:1018700024CF85EC8093BC0010924603809107032F
:10188000803230F4E0910703F0E0E951FD4F10821F
:101890006091070370E0E0911103F091120387EE6D
:1018A00092E019951092070308CF1092440334CFA9
:1018B000109273031092720388EE93E0A0E0B0E000
:1018C0008093740390937503A0937603B09377038A
:1018D00022E332E0309371032093700325EC30E073
:1018E00030937D0320937C0324EC30E030937F031E
:1018F00020937E0320EC30E030938103209380031B
:1019000021EC30E0309383032093820322EC30E01B
:10191000309385032093840326EC30E030938703D3
:10192000209386031092890310928A0310928B03EE
:1019300010928C031092100410920F0480931104E3
:1019400090931204A0931304B093140484E492E0DF
:1019500090930E0480930D041092AF041092AE0485
:1019600080E692E09093AD048093AC048CE0809389
:10197000B0048FEF8093B1048BE08093B20485E0D4
:101980008093B30484E08093B40483E08093B5042F
:1019900082E08093B6041092B7041092B8041092BB
:1019A000B9041092BA041092BB0481E00E9474073B
:1019B00010923F0410924304109242041092440487
:1019C00086E592E090933E0480933D04E9E5F4E0DF
:1019D0001082148213821582369684E0E539F80766
:1019E000B9F78CE092E09093A00480939F0488E084
:1019F00092E09093A2048093A10484E08093A304D6
:101A00008093A40480E192E090939E0480939D04CF
:101A10008AE090E09093A6048093A50484EF91E07F
:101A20009093A8048093A7041092AB041092AA0488
:101A30001092990410929A0410929B0410929C04A4
:101A40001092A9046BE672E085E294E00E94EE0930
:101A500060E772E08BE294E00E94EE096BE772E0CF
:101A600081E394E00E94EE0960E872E087E394E08D
:101A70000E94EE098091000290910102909324044B
:101A8000809323046AE672E08DE194E00E94EE09FF
:101A90000E9445046093190470931A0480931B04F8
:101AA00090931C040895CF93DF93CDB7DEB768976A
:101AB0000FB6F894DEBF0FBECDBF789484B58260B8
:101AC00084BD84B5816084BD85B5826085BD85B5E2
:101AD000816085BD80916E00816080936E00109260
:101AE00081008091810082608093810080918100DB
:101AF000816080938100809180008160809380006C
:101B00008091B10084608093B1008091B0008160C9
:101B10008093B000809191008260809391008091C9
:101B2000910081608093910080919000816080930A
:101B300090008091A10082608093A1008091A1001B
:101B400081608093A1008091A00081608093A000BB
:101B50008091210182608093210180912101816027
:101B600080932101809120018160809320018091E8
:101B70007A00846080937A0080917A0082608093FA
:101B80007A0080917A00816080937A0080917A0057
:101B9000806880937A001092C10061E085E30E9422
:101BA000AE0361E084E30E94AE0361E083E30E9440
:101BB000AE0361E082E30E94AE03E0918003F09106
:101BC000810382E08083E0917C03F0917D031082A9
:101BD000E0917E03F0917F038FEC80831092880365
:101BE000E0918403F091850386E08083E091820395
:101BF000F0918303808180618083E0918203F09182
:101C00008303808188608083E0918203F091830365
:101C1000808180688083E0918203F09183038081DA
:101C20008F7D8083109216031092150310924D033E
:101C300010926F030E94D5048AEA91E090931403F6
:101C4000809313038BEA91E0909312038093110326
:101C500082E00E9474070E946C0780E00E943808AE
:101C600090E090931F0380931E038F3F910549F1ED
:101C700081E00E94380890E090931D0380931C033C
:101C8000F0E0EF2EF2E0FF2E12E0812F0E943808E4
:101C900090E0F701819391937F011F5F1630A9F7C0
:101CA00086E00E94380890E09093240480932304F7
:101CB00087E00E94380891E0811101C090E0909384
:101CC0001B030E94070A412C512C3201439476E2F7
:101CD000E72E72E0F72E10E000E0C0901E03D090D7
:101CE0001F03F7018081F2E0EF0EF11C0C151D05BA
:101CF00051F420911C0330911D032150310961E002
:101D00002230310508F060E00E947C030F5F1F4F16
:101D10000430110511F780911B03F12CE12C88236D
:101D200009F46DC0E0902304F09024040E9445045F
:101D30008090190490901A04A0901B04B0901C0489
:101D4000681979098A099B0928EE33E040E050E0E0
:101D50000E94FC11E21AF30AF7FEA2C023E0C216A9
:101D6000D10409F07DC061E085E30E947C0361E05D
:101D700084E30E947C0361E083E30E947C0361E0D2
:101D800082E30E947C030E946C0780E00E94150899
:101D90006BE872E08CEA94E00E94290810921B0321
:101DA00010921D0310921C0360ED77E080E090E03C
:101DB0000E9413040E946C0760E085E30E947C038C
:101DC00060E084E30E947C0360E083E30E947C0384
:101DD00060E082E30E947C0381E00E94150885E2B6
:101DE00094E00E94D90180911E0390911F030196F7
:101DF000B8010E94E81190931F0380931E0381E0B5
:101E00008093A9040E9445040091990410919A04BA
:101E100020919B0430919C04AB01BC01401B510BF1
:101E2000620B730B8091A5049091A604B0E0A0E032
:101E300084179507A607B70708F096C110E08091B0
:101E4000A304181708F072C0E0919F04F091A00459
:101E5000E10FF11D62E080810E94AE031F5FEFCFB2
:101E6000C6010196B8010E94E8118C0190931F03EE
:101E700080931E030E9445046093190470931A0412
:101E800080931B0490931C04000F111FF801E05075
:101E9000FE4F808191819093240480932304AFCFDF
:101EA00080E00E9415081C8A1B8A1E8A1D8A188ED3
:101EB0001F8A4AE0BE016F5F7F4FC7010E949E11DB
:101EC000BE016F5F7F4FCE0143960E94E4096CE92B
:101ED00072E0CE0101960E94EE094F89588D6B8900
:101EE0007C89CE0101960E948509811104C0CE0132
:101EF00001960E94B10941E050E06AE972E0CE012A
:101F000001960E948509811104C0CE0101960E94AC
:101F1000B109CE0101960E94D901CE0101960E941D
:101F2000FF09CE0143960E94FF0969CF312C8091B1
:101F3000A404381608F061C0C32CD12CE091A10490
:101F4000F091A204EC0DFD1D61E080810E94AE03C2
:101F5000E091A104F091A204EC0DFD1D60E08081F0
:101F60000E947C03D301C201032C04C0880F991F77
:101F7000AA1FBB1F0A94D2F74C015C01A094B09435
:101F8000212C8091A304281608F5022D10E0E09181
:101F90009F04F091A004E00FF11F80810E94500384
:101FA0000C5F1F4F000F111FF801E35CFB4F892BE3
:101FB00041F4808191818829992991838083239498
:101FC000E0CF808191818A219B21F7CFE091A1040C
:101FD000F091A204EC0DFD1D61E080810E947C0364
:101FE0008091A1049091A204C80ED91E60E0F60170
:101FF00080810E94AE0333949ACF4DE3C42E44E017
:10200000D42EF601878D90A1892B31F4148E8FEF99
:102010009FEF968F858F11A2369694E0E937F907E6
:1020200089F7B12C8091A304B81608F051C0A12CF7
:102030000B2D10E0000F111F0B5B1B4F2091A40410
:10204000A21608F043C0F801608171810A2C02C019
:10205000769567950A94E2F7B29E900111242A0DB5
:10206000311DEDE3F4E080E0458D568D24173507F2
:1020700009F427C18F5F36968A30B1F760FF24C01C
:10208000EDE3F4E090E080E0448D411118C0E09170
:102090009D04F0919E04E20FF31F408156E0589F8B
:1020A000F001599FF00D1124E35CFB4F448F368FF4
:1020B000258F10A2178E61E00E94510405C0019681
:1020C00036968A30910501F7A394B8CFB394AACF7E
:1020D00010E0F60181A18111182FF6E0CF0ED11C7E
:1020E00029E7C21624E0D206A1F70E9445046093B6
:1020F000990470939A0480939B0490939C041123F9
:1021000099F180915E04882379F100915C0410912B
:102110005D040130110541F5D0905904D11027C05C
:102120000E9445040091170310911803012E000C22
:10213000220B330B601B710B820B930B693C7105F7
:102140008105910570F080911B03882309F4B4C0C8
:10215000C7010E94A7060E9445047093180360936C
:1021600017030E94B802B3CD1092A904D9CF0E94E0
:10217000070A80911C0390911D035AE2D51251C0A9
:10218000009751F50E9445046093190470931A0456
:1021900080931B0490931C0480911E0390911F0355
:1021A000880F991FFC01E050FE4F20813181309350
:1021B00024042093230410931D0300931C0321E0A7
:1021C00020931B038A5D9D4F61E0FC0180810E948A
:1021D0007C030E94070AA4CF8130910569F482E054
:1021E00090E090931D0380931C03F0922404E092EE
:1021F000230410921B03EDCF029709F091CF1093A7
:102200001D0300931C030E944504609319047093FE
:102210001A0480931B0490931C0481E080931B0399
:10222000D8CFFDE3DF1224C08330910509F5109269
:102230001D0310921C0380911D0490911E040097B1
:1022400099F00E947711E0911903F0911A03EE0FB3
:10225000FF1FE050FE4F718360836AE672E08DE1FC
:1022600094E00E94E409B5CF60E070E0CB01EBCFD1
:102270002FEC2D0D243088F4009779F48D2DDD0C92
:10228000990BC19790931A038093190383E090E010
:1022900090931D0380931C03E0CF039709F040CF78
:1022A000D9821A8241E050E0BE016F5F7F4F8DE11D
:1022B00094E00E9485098DCF80912304909124049D
:1022C00048CF6170F9CE8DE194E00E94FF0987E369
:1022D00094E00E94FF0981E394E00E94FF098BE2F1
:1022E00094E00E94FF0985E294E00C94FF091F939B
:1022F000FC0199278827BC01E89411911032E9F379
:10230000193010F01E30C8F31B3251F01D3249F461
:10231000689406C00E94A911610F711D811D911D55
:10232000119110531A30B0F33EF49095809570954A
:1023300061957F4F8F4F9F4F1F910895BB274A3064
:1023400031F4992322F4BDE2909581959F4F0C942E
:10235000BF11592F482F372F262F660F771F881F41
:10236000991F660F771F881F991F620F731F841FA5
:10237000951F660F771F881F991F0895BB27FB01C4
:102380005527AA27880F991FAA1FA41710F0A41B6E
:1023900083955051B9F7A05DAA3308F0A95DA193C8
:1023A000009779F7B111B1931192CB010C94D81128
:1023B000DC01FC01672F71917723E1F7329704C0AC
:1023C0007C916D9370836291AE17BF07C8F3089537
:1023D00097FB072E16F4009407D077FD09D00E94D2
:1023E000261207FC05D03EF4909581959F4F0895E5
:1023F000709561957F4F0895A1E21A2EAA1BBB1B11
:10240000FD010DC0AA1FBB1FEE1FFF1FA217B307C0
:10241000E407F50720F0A21BB30BE40BF50B661FD6
:10242000771F881F991F1A9469F76095709580959A
:1024300090959B01AC01BD01CF010895EE0FFF1FE8
:10244000881F8BBF0790F691E02D1994AA1BBB1B28
:1024500051E107C0AA1FBB1FA617B70710F0A61BA4
:10246000B70B881F991F5A95A9F780959095BC01C5
:10247000CD0108950F931F93CF93DF938230910581
:1024800010F482E090E0E091C604F091C70430E0DF
:1024900020E0B0E0A0E0309799F42115310509F46F
:1024A0004AC0281B390B24303105D8F58A819B811D
:1024B0006115710589F1FB0193838283FE0111C0CF
:1024C000408151810281138148175907E0F0481774
:1024D000590799F4109761F012960C93129713967E
:1024E0001C933296CF01DF91CF911F910F910895E8
:1024F0000093C6041093C704F4CF2115310551F0A1
:102500004217530738F0A901DB019A01BD01DF0131
:10251000F801C1CFEF01F9CF9093C7048093C604AF
:10252000CDCFFE01E20FF31F819391932250310929
:1025300039832883D7CF2091C4043091C504232B3D
:1025400041F420912202309123023093C50420935C
:10255000C40420912002309121022115310541F45B
:102560002DB73EB74091240250912502241B350B14
:10257000E091C404F091C504E217F307A0F42E1B08
:102580003F0B2817390778F0AC014E5F5F4F2417D7
:10259000350748F04E0F5F1F5093C5044093C404A5
:1025A000819391939FCFF0E0E0E09CCFCF93DF93B6
:1025B0000097E9F0FC01329713821282A091C604C1
:1025C000B091C704ED0130E020E01097A1F4208124
:1025D0003181820F931F2091C4043091C5042817C4
:1025E000390709F061C0F093C504E093C404DF919A
:1025F000CF910895EA01CE17DF07E8F54A815B81A4
:102600009E0141155105B1F7E901FB83EA83499128
:102610005991C40FD51FEC17FD0761F4808191819A
:102620000296840F951FE9019983888382819381A3
:102630009B838A83F0E0E0E012968D919C91139742
:102640000097B9F52D913C911197CD010296820F1B
:10265000931F2091C4043091C5042817390739F617
:10266000309751F51092C7041092C604B093C50478
:10267000A093C404BCCFD383C28340815181840F13
:10268000951FC817D90761F44E5F5F4F8881998104
:10269000480F591F518340838A819B819383828392
:1026A0002115310509F0B0CFF093C704E093C604BB
:1026B0009ECFFD01DC01C0CF13821282D7CF4F9293
:1026C0005F926F927F928F929F92AF92BF92CF92C2
:1026D000DF92EF92FF920F931F93CF93DF938C01C2
:1026E000009799F4CB01DF91CF911F910F91FF904B
:1026F000EF90DF90CF90BF90AF909F908F907F90A2
:102700006F905F904F900C943A12FC01E60FF71F08
:102710009C0122503109E217F30708F4AEC0D90139
:10272000CD91DC911197C617D70720F1C530D1059F
:1027300078F0CE0104978617970750F0C61BD70B89
:102740002297C193D1936D937C93CF010E94D612AF
:10275000C801DF91CF911F910F91FF90EF90DF9013
:10276000CF90BF90AF909F908F907F906F905F9031
:102770004F9008955B01AC1ABD0A4C018C0E9D1E52
:10278000A091C604B091C704512C412CF12CE12C2E
:10279000109731F58091C4049091C504881599056E
:1027A00009F05CC04616570608F058C08091200218
:1027B00090912102009741F48DB79EB74091240279
:1027C00050912502841B950BE817F90708F055C0B6
:1027D000F093C504E093C404F90171836083B8CF1A
:1027E0008D919C91119712966C90129713967C90F4
:1027F0001397A815B90559F56C0142E0C40ED11C18
:10280000CA14DB0420F1AC014A195B09DA01129603
:10281000159780F06282738251834083D9016D9352
:102820007C93E114F10471F0D7011396FC93EE93BD
:1028300012978ECF22968C0F9D1FF9019183808372
:10284000F301EFCFF093C704E093C60481CF48169D
:10285000590608F42C017D01D3019ACFCB010E94C7
:102860003A127C01009749F0AE01B8010E94401471
:10287000C8010E94D61287016BCF10E000E068CF3C
:10288000FB01DC0102C001900D9241505040D8F78D
:102890000895FB01DC0101900D920020E1F70895FD
:1028A00011E0C3E5D1E000E006C0802FFE010E94E8
:1028B0001E122196011DC435D10780E00807A9F733
:0428C000F894FFCFBA
:1028C4000500050005000500161718191A1B1C1D24
:1028D4003738392F3435362A3132332D43303D2BB6
:1028E4000000C804800035003400330032000000CA
:1028F40000004B02AC01E20198021302F10105024F
:10290400000000005B062E068A060406270614064D
:10291400050600000000EA03AA0379030000000092
:102924002308AC018A06AD040D0A0049444C450055
:10293400576F726B696E672E2E2E00484F4C440001
:102944006E65772074696D653A200020202020464A
:10295400494E4953484544202020200054696D6560
:042964003A20000015
:00000001FF
