:100000000C941A010C944B010C944B010C944B0171
:100010000C944B010C944B010C944B010C944B0130
:100020000C944B010C944B010C944B010C944B0120
:100030000C944B010C944B010C944B010C944B0110
:100040000C944B010C94B8040C944B010C944B0190
:100050000C944B010C944B010C944B010C94E40355
:100060000C944B010C944B010C944B010C944B01E0
:100070000C944B010C944B010C944B010C944B01D0
:100080000C948A040C944B010C944B010C944B017E
:100090000C944B010C944B010C944B010C944B01B0
:1000A0000C944B010C944B010C945C040C944B018C
:1000B0000C944B010C944B010C944B010C942E04AA
:1000C0000C944B010C944B010C944B010C944B0180
:1000D0000C944B010C944B010C944B010C944B0170
:1000E0000C944B010C9451020C945F020C943C0252
:1000F0000C9477020C942A020C9440020C94440253
:100100000C9463020C9471020C9445060C94250225
:100110000C9448020C944B020C9455020C946D0202
:100120000C9469020C945B020C947B0200000A0B95
:1001300002090C0D0E080703040100000000000076
:1001400000000000000000000000000000000000AF
:10015000000000000000000012111000000000006C
:10016000000000000000000000000000000000008F
:10017000000000002200250028002B002E00310086
:10018000340002010000050108010B0100002100FC
:10019000240027002A002D00300033000101000058
:1001A000040107010A0105050505070508080808F7
:1001B000020202020A0A08080404040401010101FF
:1001C00001010101030303030303030304070707FA
:1001D0000C0C0C0C0C0C0C0C02020202060606069F
:1001E000060606060B0B0B0B0B0B0B0B010210206C
:1001F000200808102040102040800201020108045D
:1002000002010102040810204080804020100804F0
:100210000201800402018040201008040201080449
:10022000020101020408102040800102040810208D
:100230004080450611241FBECFEFD1E2DEBFCDBF07
:1002400000E00CBF12E0A0E0B2E0ECE8FFE000E06C
:100250000BBF02C007900D92A030B107D9F722E082
:10026000A0E0B2E001C01D92A83AB207E1F711E0A8
:10027000CAE1D1E000E006C021970109802FFE010C
:100280000E94BC07C931D10780E00807A9F70E9486
:1002900001050C94C4070C94000090E0FC01E451AB
:1002A000FE4F24918A559E4FFC018491882399F03A
:1002B00090E0880F991FFC01E457FE4FA591B4917F
:1002C000FC01EE58FE4F859194918FB7F894EC9114
:1002D000E22BEC938FBF08951F93CF93DF93EC0134
:1002E000162F8881803308F04FC0862F0E944D0161
:1002F0008881282F30E0F901EE0FFF1FE20FF31F76
:10030000E85EFD4F1F736081607C612B60839EE817
:10031000998394E69A832CE0622F0E94B007829F13
:10032000B001112430E020E0AB01420F531FFA016D
:10033000EE0FFF1FE40FF51FE85EFD4F908196FD65
:1003400016C02F5F3F4F2C30310571F7813009F512
:100350001092800082E080938100109285001092BC
:100360008400B19A80916F00826080936F00E88171
:100370008E2F90E0FC01EE0FFF1FE80FF91FE85EE3
:10038000FD4F8081806480838881DF91CF911F91B0
:100390000895823061F41092900080939100109241
:1003A00095001092940088BB80937100E0CF833059
:1003B00069F41092A00082E08093A1001092A50041
:1003C0001092A40089BB80937200D1CF8111CFCF4E
:1003D0001092200182E08093210110922501109259
:1003E00024018ABB80937300C2CF282F30E0F9012B
:1003F000E45DFE4F9491F901E451FE4F44912A557A
:100400003E4FF9012491222309F435C0992311F1BB
:1004100091509231F8F4E92FF0E08827ED5EFD4F1E
:100420008F4F0C94BC074402480225023C02400254
:100430002A024B02510255025B025F02630269020B
:100440006D022A02710277027B02809180008F7711
:1004500080938000E22FF0E0EE0FFF1FEE58FE4F7A
:10046000A591B4918FB7F894EC91611148C0409573
:100470004E234C938FBF0895809180008F7DE8CFED
:1004800080918000877FE4CF84B58F7784BDE2CFF1
:1004900084B58F7DFBCF8091B0008F778093B000C3
:1004A000D9CF8091B0008F7DF9CF809190008F7768
:1004B00080939000CFCF809190008F7DF9CF809175
:1004C0009000877FF5CF8091A0008F778093A00068
:1004D000C1CF8091A0008F7DF9CF8091A000877F50
:1004E000F5CF809120018F7780932001B3CF809149
:1004F00020018F7DF9CF80912001877FF5CF4E2B92
:10050000B8CF3FB7F89480910A0290910B02A09166
:100510000C02B0910D0226B5A89B05C02F3F19F023
:100520000196A11DB11D3FBFBA2FA92F982F882773
:10053000BC01CD01620F711D811D911D42E0660F4E
:10054000771F881F991F4A95D1F708958F929F9220
:10055000AF92BF92CF92DF92EF92FF920E94810200
:100560004B015C0182E3C82ED12CE12CF12C0E94BE
:100570008102681979098A099B09683E73408105DF
:100580009105A8F321E0C21AD108E108F10888EE2C
:10059000880E83E0981EA11CB11CC114D104E10493
:1005A000F10429F7FF90EF90DF90CF90BF90AF90CC
:1005B0009F908F900895DC01EC91E03390F51196B7
:1005C0008C91119728E830E0281B310987FD33957D
:1005D000220F331F220F331F6217730784F0129606
:1005E0008C9128E532E0281B310987FD3395220FD5
:1005F000331F220F331F621773070CF49B01225025
:100600003109220F331F4FB7F8948E2F90E0FC0171
:10061000EE0FFF1FE80FF91FE85EFD4F32832183C5
:100620004FBF0895AF92BF92CF92DF92EF92FF92A9
:100630000F931F93CF93DF936B017A01EC01C050AE
:10064000DE4F28813CE0389F8001399F100D112436
:10065000A0900402B12C27FF1FC0FB011182108261
:1006600088818F5F888388819801280F311D87FDDD
:100670003A95F6012A153B051CF488818C30C4F1AB
:1006800080819181049680349C4908F473C0F601FE
:1006900080819181049670C088819801280F311D56
:1006A00087FD3A952A153B05DCF68881A801480F9D
:1006B000511D87FD5A95FA01EE0FFF1FE40FF51F3C
:1006C000E85EFD4F808186FFCBCF8881F801E80F7F
:1006D000F11D87FDFA95CF01EE0FFF1FE80FF91FFF
:1006E000E85EFD4F808160E08F730E94F501B8CF16
:1006F000808191812881A801420F511D27FD5A95C3
:100700009A01FA01EE0FFF1FE20FF31FE85EFD4FA3
:1007100021813281820F931FF70191838083888129
:100720009801280F311D87FD3A95F901EE0FFF1F43
:10073000E20FF31FE85EFD4F808186FF22C08881B3
:10074000080F111D87FD1A95F801EE0FFF1FE00F2E
:10075000F11FE85EFD4F808161E08F73DF91CF91E3
:100760001F910F91FF90EF90DF90CF90BF90AF90CF
:100770000C94F50180E49CE9F701918380838FEF6D
:100780008883DF91CF911F910F91FF90EF90DF90C1
:10079000CF90BF90AF900895CF93DF93D82FC62FFF
:1007A00060E08C2F0E94F5010E94A602DEBD0000D1
:1007B0000DB407FEFDCF8EB561E08C2F0E94F501D0
:1007C000DF91CF910C94A6021F920F920FB60F9259
:1007D00011242F933F938F939F93AF93BF93809157
:1007E000060290910702A0910802B091090230918F
:1007F000050223E0230F2D3758F50196A11DB11DE9
:10080000209305028093060290930702A0930802AA
:10081000B093090280910A0290910B02A0910C0200
:10082000B0910D020196A11DB11D80930A02909313
:100830000B02A0930C02B0930D02BF91AF919F9158
:100840008F913F912F910F900FBE0F901F90189591
:1008500026E8230F0296A11DB11DD2CF1F920F9241
:100860000FB60F9211240BB60F922F933F934F9315
:100870005F936F937F938F939F93AF93BF93EF9308
:10088000FF9348E251E064E271E090E080E00E9472
:100890001203FF91EF91BF91AF919F918F917F9143
:1008A0006F915F914F913F912F910F900BBE0F90E1
:1008B0000FBE0F901F9018951F920F920FB60F92B8
:1008C00011240BB60F922F933F934F935F936F9327
:1008D0007F938F939F93AF93BF93EF93FF9348EAD8
:1008E00050E064EA70E083E090E00E941203FF9120
:1008F000EF91BF91AF919F918F917F916F915F9198
:100900004F913F912F910F900BBE0F900FBE0F9004
:100910001F9018951F920F920FB60F9211240BB6CD
:100920000F922F933F934F935F936F937F938F9388
:100930009F93AF93BF93EF93FF9348E950E064E92F
:1009400070E082E090E00E941203FF91EF91BF916E
:10095000AF919F918F917F916F915F914F913F9157
:100960002F910F900BBE0F900FBE0F901F901895F8
:100970001F920F920FB60F9211240BB60F922F9366
:100980003F934F935F936F937F938F939F93AF9317
:10099000BF93EF93FF9348E850E064E870E081E094
:1009A00090E00E941203FF91EF91BF91AF919F9150
:1009B0008F917F916F915F914F913F912F910F9008
:1009C0000BBE0F900FBE0F901F901895FC019091D9
:1009D0000402903398F481E0890F8093040290839D
:1009E000892F90E0FC01EE0FFF1FE80FF91FE85E72
:1009F000FD4F88EB9BE09283818308958FEF808386
:100A00000895789484B5826084BD84B5816084BD86
:100A100085B5826085BD85B5816085BD80916E009C
:100A2000816080936E0010928100809181008260CD
:100A3000809381008091810081608093810080910A
:100A400080008160809380008091B10084608093F9
:100A5000B1008091B00081608093B00080919100DE
:100A600082608093910080919100816080939100D9
:100A7000809190008160809390008091A1008260BD
:100A80008093A1008091A10081608093A10080915A
:100A9000A00081608093A0008091210182608093FA
:100AA00021018091210181608093210180912001A9
:100AB00081608093200180917A00846080937A0025
:100AC00080917A00826080937A0080917A008160C0
:100AD00080937A0080917A00806880937A001092E7
:100AE000C10068E270E085E192E00E946C0169E279
:100AF00070E082E192E00E946C0167E270E08FE0BA
:100B000092E00E946C01CFB7F89480910E0281119F
:100B100024C0EBEDF1E08491E1E2F2E09491E82F62
:100B2000F0E0EE0FFF1FE457FE4FA591B491EC915A
:100B3000E92321F461E085E30E94F50185E30E9449
:100B40004D018CB580618CBD8CB580648CBD84E317
:100B50000E944D0183E30E944D0180910E028F5F40
:100B600080930E02CFBF84E20E944D0182E20E9478
:100B70004D0161E084E20E94F50161E082E20E94A1
:100B8000F50110E4C0E0D0E080917B00877F809386
:100B90007B0010937C0080917A00806480937A00BF
:100BA00080917A0086FDFCCF809178006091790079
:100BB000762F682F072E000C880B990B0E948E064B
:100BC00020E030E040E85AE30E941B0720E030E0DC
:100BD0004AEF53E40E941B076B017C0120E030E0E8
:100BE00040EF51E40E94160718163CF560ED77E0DF
:100BF00085E192E00E94DB0260ED77E082E192E025
:100C00000E94DB0260ED77E08FE092E00E94DB0261
:100C1000C701B6010E9456066B0164E270E0C6018E
:100C20000E94CC0362E270E0C6010E94CC032097D0
:100C300009F4AACF0E940000A7CF20E030E040EAEC
:100C400051E4C701B6010E94510687FF0FC068EE4C
:100C500073E085E192E00E94DB0268EE73E082E1DE
:100C600092E00E94DB0268EE73E0CECF6CED75E09F
:100C700085E192E00E94DB026CED75E082E192E09A
:100C80000E94DB026CED75E0BFCF85E192E00E942F
:100C9000E60482E192E00E94E6048FE092E00C9488
:100CA000E6040E94C90608F481E008950E945D06EA
:100CB0006894B1110C94100708950E94F50688F00D
:100CC0009F5798F0B92F9927B751B0F0E1F0660F10
:100CD000771F881F991F1AF0BA95C9F714C0B13051
:100CE00091F00E940F07B1E008950C940F07672F51
:100CF000782F8827B85F39F0B93FCCF38695779580
:100D00006795B395D9F73EF4909580957095619568
:100D10007F4F8F4F9F4F0895E89409C097FB3EF493
:100D200090958095709561957F4F8F4F9F4F992338
:100D3000A9F0F92F96E9BB279395F69587957795B6
:100D40006795B795F111F8CFFAF4BB0F11F460FF76
:100D50001BC06F5F7F4F8F4F9F4F16C0882311F0CE
:100D600096E911C0772321F09EE8872F762F05C0E2
:100D7000662371F096E8862F70E060E02AF09A957D
:100D8000660F771F881FDAF7880F9695879597F972
:100D90000895990F0008550FAA0BE0E8FEEF16160C
:100DA0001706E807F907C0F012161306E407F5075F
:100DB00098F0621B730B840B950B39F40A2661F0D3
:100DC000232B242B252B21F408950A2609F4A14076
:100DD000A6958FEF811D811D089557FD9058440FF2
:100DE000551F59F05F3F71F04795880F97FB991F8A
:100DF00061F09F3F79F08795089512161306140647
:100E0000551FF2CF4695F1DF08C0161617061806D3
:100E1000991FF1CF86957105610508940895E894AE
:100E2000BB2766277727CB0197F908950E94C9064B
:100E300008F48FEF08950E942E070C949F070E94DC
:100E4000910738F00E94980720F0952311F00C9438
:100E500088070C948E0711240C9410070E94ED064D
:100E600070F3959FC1F3950F50E0551F629FF001FD
:100E7000729FBB27F00DB11D639FAA27F00DB11D16
:100E8000AA1F649F6627B00DA11D661F829F22279F
:100E9000B00DA11D621F739FB00DA11D621F839F26
:100EA000A00D611D221F749F3327A00D611D231FFC
:100EB000849F600D211D822F762F6A2F11249F574A
:100EC00050409AF0F1F088234AF0EE0FFF1FBB1F4D
:100ED000661F771F881F91505040A9F79E3F51050C
:100EE00080F00C9488070C9410075F3FE4F3983E61
:100EF000D4F3869577956795B795F795E7959F5FB6
:100F0000C1F7FE2B880F911D9695879597F9089547
:100F100097F99F6780E870E060E008959FEF80ECAC
:100F2000089500240A94161617061806090608954F
:100F300000240A9412161306140605060895092EB5
:100F40000394000C11F4882352F0BB0F40F4BF2B24
:100F500011F460FF04C06F5F7F4F8F4F9F4F089564
:100F6000991B79E004C0991F961708F0961B881FFB
:100F70007A95C9F780950895EE0FFF1F881F8BBFE4
:0C0F80000790F691E02D1994F894FFCF33
:00000001FF
