:100000000C9429010C945A010C945A010C945A0135
:100010000C945A010C945A010C945A010C945A01F4
:100020000C945A010C945A010C945A010C945A01E4
:100030000C945A010C94A2030C945A010C945A018A
:100040000C945A010C945A010C945A010C945A01C4
:100050000C945A010C945A010C945A010C945803B4
:100060000C94A1040C946B040C9441040C945A015C
:100070000C945A010C945A010C945A010C945A0194
:100080000C945A010C945A010C945A010C945A0184
:100090000C945A010C945A010C945A010C945A0174
:1000A0000C945A010C945A010C945A010C945A0164
:1000B0000C945A010C945A010C945A010C945A0154
:1000C0000C945A010C945A010C945A010C945A0144
:1000D0000C945A010C945A010C945A010C945A0134
:1000E0000C945A010C94E6020C94F2010C94120345
:1000F0000C94C5020C9404030C9416030C94FA029D
:100100000C94EC020C94E3020C943F020C94BA01A0
:100110000C94BA070C94FE020C94F6020C9489011C
:100120000C945C010C94DB020C94AC010C94D7028F
:100130000C9498010C94C0020C9408030C94F002E7
:100140000C94DF020C940C03000022002500280010
:100150002B002E00310034000201000005010801CF
:100160000B0100000A0B02090C0D0E080703040125
:10017000000000000000000000000000000000007F
:10018000000000000000000000000000000012114C
:10019000100000000000000000000000000000004F
:1001A00000000000000000000200002100240027E1
:1001B000002A002D00300033000101000004010777
:1001C000010A0101021020200808102040102040E0
:1001D000800201020108040201010204081020400B
:1001E0008080402010080402018004020180402029
:1001F0001008040201080402010102040810204052
:100200008001020408102040800505050507050847
:10021000080808020202020A0A0808040404040189
:1002200001010101010101030303030303030304AB
:100230000707070C0C0C0C0C0C0C0C02020202063B
:10024000060606060606060B0B0B0B0B0B0B0B002C
:10025000BA0711241FBECFEFD1E2DEBFCDBF00E051
:100260000CBF12E0A0E0B2E0E6E2F0E100E00BBF7C
:1002700002C007900D92A631B107D9F722E0A6E19E
:10028000B2E001C01D92AD3DB207E1F711E0C9E255
:10029000D1E000E006C021970109802FFE010E94F5
:1002A0000908C832D10780E00807A9F70E94CD06E7
:1002B0000C9411080C940000AF92BF92CF92DF9281
:1002C000EF92FF920F931F93CF93DF936C017B010B
:1002D0008B01040F151FEB015E01AE18BF08C0179C
:1002E000D10759F06991D601ED91FC910190F0810F
:1002F000E02DC6011995892B79F7C501DF91CF91C2
:100300001F910F91FF90EF90DF90CF90BF90AF9033
:100310000895FC01538D448D252F30E0842F90E00B
:10032000821B930B541710F0CF96089501970895F0
:10033000FC01918D828D981761F0A28DAE0FBF2FB9
:10034000B11D5D968C91928D9F5F9F73928F90E00F
:1003500008958FEF9FEF0895FC01918D828D98177E
:1003600031F0828DE80FF11D858D90E008958FEFBB
:100370009FEF0895FC01918D228D892F90E0805C84
:100380009F4F821B91098F739927089587E392E00D
:100390000E94BA0121E0892B09F420E0822F089500
:1003A000FC01A48DA80FB92FB11DA35ABF4F2C91EA
:1003B000848D90E001968F739927848FA689B789E1
:1003C0002C93A089B1898C91837080648C93938DD8
:1003D000848D981306C00288F389E02D80818F7D7B
:1003E00080830895EF92FF920F931F93CF93DF9333
:1003F000EC0181E0888F9B8D8C8D98131AC0E88961
:10040000F989808185FF15C09FB7F894EE89FF892F
:100410006083E889F98980818370806480839FBFCD
:1004200081E090E0DF91CF911F910F91FF90EF90CD
:100430000895F62E0B8D10E00F5F1F4F0F731127DD
:10044000E02E8C8D8E110CC00FB607FCFACFE88918
:10045000F989808185FFF5CFCE010E94D001F1CFCF
:10046000EB8DEC0FFD2FF11DE35AFF4FF0829FB78C
:10047000F8940B8FEA89FB8980818062CFCFCF937C
:10048000DF93EC01888D8823B9F0AA89BB89E889BC
:10049000F9898C9185FD03C0808186FD0DC00FB662
:1004A00007FCF7CF8C9185FFF2CF808185FFEDCFE0
:1004B000CE010E94D001E9CFDF91CF91089580E075
:1004C00090E0892B29F00E94C60181110E94000052
:1004D00080E090E0892B49F080E090E0892B29F0C2
:1004E0000E94000081110E94000080E090E0892BB2
:1004F00049F080E090E0892B29F00E9400008111F2
:100500000E94000080E090E0892B49F080E090E0BC
:10051000892B29F00E94000081110C94000008959D
:10052000282F30E0F901EE59FE4F9491F901ED5377
:10053000FE4F4491275F3D4FF9012491222309F496
:1005400035C0992311F191509231F8F4E92FF0E080
:100550008827E255FD4F8F4F0C940908DF02E30214
:10056000C002D702DB02C502E602EC02F002F6028C
:10057000FA02FE0204030803C5020C031203160369
:10058000809180008F7780938000E22FF0E0EE0F63
:10059000FF1FE85BFE4FA591B4918FB7F894EC91E3
:1005A000611148C040954E234C938FBF08958091B0
:1005B00080008F7DE8CF80918000877FE4CF84B575
:1005C0008F7784BDE2CF84B58F7DFBCF8091B00063
:1005D0008F778093B000D9CF8091B0008F7DF9CF15
:1005E000809190008F7780939000CFCF8091900082
:1005F0008F7DF9CF80919000877FF5CF8091A0000B
:100600008F778093A000C1CF8091A0008F7DF9CF1C
:100610008091A000877FF5CF809120018F77809314
:100620002001B3CF809120018F7DF9CF80912001EF
:10063000877FF5CF4E2BB8CFCF93DF9390E0FC01AF
:10064000ED53FE4F2491875F9D4FFC0184918823D9
:10065000C9F090E0880F991FFC01E755FE4FA59166
:10066000B491FC01E85BFE4FC591D49161110DC0BE
:100670009FB7F8948C91209582238C9388812823AE
:1006800028839FBFDF91CF910895623051F49FB7C7
:10069000F8943C91822F809583238C93E8812E2BB4
:1006A000EFCF8FB7F894EC912E2B2C938FBFEACF1E
:1006B0001F920F920FB60F9211242F933F938F9397
:1006C0009F93AF93BF938091D9029091DA02A0914A
:1006D000DB02B091DC023091D80223E0230F2D37EA
:1006E00058F50196A11DB11D2093D8028093D9021F
:1006F0009093DA02A093DB02B093DC028091D402E3
:100700009091D502A091D602B091D7020196A11D79
:10071000B11D8093D4029093D502A093D602B093DA
:10072000D702BF91AF919F918F913F912F910F90E1
:100730000FBE0F901F90189526E8230F0296A11D5B
:10074000B11DD2CF1F920F920FB60F9211240BB68C
:100750000F922F933F934F935F936F937F938F935A
:100760009F93AF93BF93EF93FF9380913202909149
:100770003302A0913402B0913502892B8A2B8B2B46
:10078000E1F190913102E0912F02F09130028081ED
:10079000892780838091320290913302A0913402A4
:1007A000B0913502181619061A061B069CF48091A2
:1007B000320290913302A0913402B0913502019738
:1007C000A109B1098093320290933302A0933402BD
:1007D000B0933502FF91EF91BF91AF919F918F91AF
:1007E0007F916F915F914F913F912F910F900BBE31
:1007F0000F900FBE0F901F90189580910002E8EAAD
:10080000F1E0E4919FEF90930002E230E9F040F4D0
:10081000EE2389F0E13091F060E00E949002DACF9F
:10082000E43049F110F1E530B9F7909173009D7F04
:1008300090937300F1CF10926E00EECF90916F0005
:100840009D7F90936F00E8CF909170009D7F909373
:10085000700091E09093B0009091B100987F946007
:100860009093B1001092B300D7CF909171009D7F0B
:1008700090937100D1CF909172009D7F9093720000
:10088000CBCF1F920F920FB60F9211240BB60F927F
:100890002F933F934F935F936F937F938F939F9388
:1008A000AF93BF93EF93FF9387E392E00E94D00151
:1008B000FF91EF91BF91AF919F918F917F916F9138
:1008C0005F914F913F912F910F900BBE0F900FBEF4
:1008D0000F901F9018951F920F920FB60F92112430
:1008E0000BB60F922F938F939F93EF93FF93E0910B
:1008F0004702F09148028081E0914D02F0914E0252
:1009000082FD1DC09081809150028F5F8F73209176
:100910005102821741F0E0915002F0E0E95CFD4F96
:10092000958F80935002FF91EF919F918F912F911E
:100930000F900BBE0F900FBE0F901F9018958081E7
:10094000F2CF1F920F920FB60F9211240BB60F9297
:100950008F929F92AF92BF92FF920F931F932F930C
:100960003F934F935F936F937F938F939F93AF9337
:10097000BF93EF93FF93CF93DF93CDB7DEB7A197EC
:10098000DEBFCDBFFEB42EB530E050E040E019A28E
:100990008E010F5D1F4F6AE0862E912CA12CB12C89
:1009A000CA01B901A50194010E94E707605DF80141
:1009B00062938F01211531054105510589F7309763
:1009C00061F001900020E9F73197AF01401B510B16
:1009D000B80187E392E00E945C0142E050E063E1ED
:1009E00072E087E392E00E945C01FEE1FF1538F4BB
:1009F00080910002873029F18F3F09F44CC0A19605
:100A00000FB6F894DEBF0FBECDBFDF91CF91FF913F
:100A1000EF91BF91AF919F918F917F916F915F9176
:100A20004F913F912F911F910F91FF90BF90AF90E9
:100A30009F908F900F900BBE0F900FBE0F901F9046
:100A40001895E8EAF1E0149117FDD9CF61E087E04D
:100A50000E941C03112309F4F2C0123009F007C1EF
:100A60008091B100887F85608093B1008FEC809386
:100A7000B3008CE390E0A0E0B0E08093320290936A
:100A80003302A0933402B0933502809170008260EB
:100A900080937000B4CF87E080930002E8EAF1E031
:100AA0001491812F1F3F09F4AACF123009F468C0B6
:100AB00060F4112379F1113009F444C087FD9FCF10
:100AC00061E087E00E941C03C8CF143009F499C08C
:100AD00008F478C0153091F710922001109221018E
:100AE00080912101886080932101809121018160A2
:100AF00080932101E0E1F2E0E491F0E0EE0FFF1FCE
:100B0000E85BFE4F85919491EAECF1E0E491E0938B
:100B100016029CCF14BC15BC84B5826084BD85B51B
:100B2000816085BDE0E1F2E0E491F0E0EE0FFF1FAF
:100B3000E85BFE4F85919491EAECF1E0E491E0935B
:100B40001A0284CF1092800010928100809181005F
:100B50008860809381008091810081608093810012
:100B6000E0E1F2E0E491F0E0EE0FFF1FE85BFE4F02
:100B700085919491EAECF1E0E491E093190266CF5B
:100B80001092B0001092B1008091B000826080930A
:100B9000B0008091B10081608093B100E0E1F2E0AB
:100BA000E491F0E0EE0FFF1FE85BFE4F859194911A
:100BB0009093300280932F02EAECF1E0E491E0930D
:100BC000310244CF109290001092910080919100D8
:100BD0008860809391008091910081608093910062
:100BE000E0E1F2E0E491F0E0EE0FFF1FE85BFE4F82
:100BF00085919491EAECF1E0E491E093180213E01E
:100C000025CF1092A0001092A1008091A1008860D1
:100C10008093A1008091A10081608093A100E0E118
:100C2000F2E0E491F0E0EE0FFF1FE85BFE4F8591EC
:100C30009491EAECF1E0E491E093170207CF85B5D7
:100C4000887F846085BD87E687BD8CE390E0A0E067
:100C5000B0E080932B0290932C02A0932D02B093CE
:100C60002E0280916E00826080936E00C8CE11309B
:100C7000F1F480918100887F81608093810089E216
:100C800098E690938900809388008CE390E0A0E040
:100C9000B0E08093270290932802A0932902B0939A
:100CA0002A0280916F00826080936F00A8CE13307B
:100CB000F1F480919100887F81608093910089E2B6
:100CC00098E690939900809398008CE390E0A0E0E0
:100CD000B0E08093230290932402A0932502B09366
:100CE00026028091710082608093710088CE14305A
:100CF000F1F48091A100887F81608093A10089E256
:100D000098E69093A9008093A8008CE390E0A0E07F
:100D1000B0E080931F0290932002A0932102B09331
:100D200022028091720082608093720068CE15303A
:100D3000F1F480912101887F81608093210189E213
:100D400098E690932901809328018CE390E0A0E03D
:100D5000B0E080931B0290931C02A0931D02B093FD
:100D60001E028091730082608093730048CE12301F
:100D700091F034F4112369F0113009F040CE7FCFA7
:100D8000143009F4BCCF0CF49ACF153009F037CEEB
:100D9000D6CF89E259CF89E26ACE789484B5826051
:100DA00084BD84B5816084BD85B5826085BD85B50F
:100DB000816085BD80916E00816080936E0010928D
:100DC0008100809181008260809381008091810008
:100DD0008160809381008091800081608093800099
:100DE0008091B10084608093B1008091B0008160F7
:100DF0008093B000809191008260809391008091F7
:100E00009100816080939100809190008160809337
:100E100090008091A10082608093A1008091A10048
:100E200081608093A1008091A00081608093A000E8
:100E30008091210182608093210180912101816054
:100E40008093210180912001816080932001809115
:100E50007A00846080937A0080917A008260809327
:100E60007A0080917A00816080937A0080917A0084
:100E7000806880937A001092C100E0914702F0915F
:100E8000480282E08083E0914302F09144021082A4
:100E9000E0914502F09146028FEC808310924F0260
:100EA000E0914B02F0914C0286E08083E091490290
:100EB000F0914A02808180618083E0914902F09143
:100EC0004A02808188608083E0914902F0914A0261
:100ED000808180688083E0914902F0914A0280819C
:100EE0008F7D8083CFB7F89480913602811127C01F
:100EF000EEE3F2E08491E8EFF1E09491E82FF0E086
:100F0000EE0FFF1FE755FE4FA591B491EC91E92339
:100F100021F461E085E30E94900261E085E30E9494
:100F20001C038CB580618CBD8CB580648CBD61E088
:100F300084E30E941C0361E083E30E941C03809110
:100F400036028F5F80933602CFBF62E085E30E9456
:100F50001C0360E083E30E941C0360E084E30E94C2
:100F60001C038CB580648CBD8CB580688CBD0E94E0
:100F70005F02FDCFE7E3F2E01382128288EE93E096
:100F8000A0E0B0E084839583A683B78385E092E0F8
:100F90009183808385EC90E09587848784EC90E052
:100FA0009787868780EC90E0918B808B81EC90E036
:100FB000938B828B82EC90E0958B848B86EC90E017
:100FC000978B868B118E128E138E148E0895A1E24C
:100FD0001A2EAA1BBB1BFD010DC0AA1FBB1FEE1FB3
:100FE000FF1FA217B307E407F50720F0A21BB30BFE
:100FF000E40BF50B661F771F881F991F1A9469F77A
:1010000060957095809590959B01AC01BD01CF01D5
:101010000895EE0FFF1F881F8BBF0790F691E02DFC
:061020001994F894FFCFC3
:10102600FF00000000F2015C0189013F02BA01984D
:0610360001AC010D0A00EF
:00000001FF
